{
  "contractName": "piiSZGNetwork",
  "abi": [
    {
      "constant": true,
      "inputs": [
        {
          "name": "",
          "type": "address"
        }
      ],
      "name": "members",
      "outputs": [
        {
          "name": "personType",
          "type": "uint8"
        },
        {
          "name": "universityComponenetType",
          "type": "uint8"
        }
      ],
      "payable": false,
      "stateMutability": "view",
      "type": "function"
    },
    {
      "constant": true,
      "inputs": [
        {
          "name": "",
          "type": "address"
        }
      ],
      "name": "universityComponenets",
      "outputs": [
        {
          "name": "universityComponenetType",
          "type": "uint8"
        },
        {
          "name": "openingTime",
          "type": "uint32"
        },
        {
          "name": "closingTime",
          "type": "uint32"
        }
      ],
      "payable": false,
      "stateMutability": "view",
      "type": "function"
    },
    {
      "constant": false,
      "inputs": [
        {
          "name": "_hValue",
          "type": "address"
        },
        {
          "name": "_personType",
          "type": "uint8"
        },
        {
          "name": "_uComponenetType",
          "type": "uint8"
        }
      ],
      "name": "createMember",
      "outputs": [],
      "payable": false,
      "stateMutability": "nonpayable",
      "type": "function"
    },
    {
      "constant": false,
      "inputs": [
        {
          "name": "_hValue",
          "type": "address"
        },
        {
          "name": "_uComponenetType",
          "type": "uint8"
        },
        {
          "name": "_openingTime",
          "type": "uint32"
        },
        {
          "name": "_closingTime",
          "type": "uint32"
        }
      ],
      "name": "createUniversityComponenet",
      "outputs": [],
      "payable": false,
      "stateMutability": "nonpayable",
      "type": "function"
    },
    {
      "constant": false,
      "inputs": [
        {
          "name": "addressHashMember",
          "type": "address"
        },
        {
          "name": "addressHashUniversityComponenet",
          "type": "address"
        },
        {
          "name": "ttime",
          "type": "uint256"
        }
      ],
      "name": "callAccessTransaction",
      "outputs": [
        {
          "name": "",
          "type": "bool"
        }
      ],
      "payable": false,
      "stateMutability": "nonpayable",
      "type": "function"
    }
  ],
  "bytecode": "0x608060405234801561001057600080fd5b5061055e806100206000396000f30060806040526004361061006d576000357c0100000000000000000000000000000000000000000000000000000000900463ffffffff16806308ae4b0c146100725780634995c224146100ec5780637458a0201461017157806387780003146101ce578063bcb617451461023e575b600080fd5b34801561007e57600080fd5b506100b3600480360381019080803573ffffffffffffffffffffffffffffffffffffffff1690602001909291905050506102c9565b604051808360028111156100c357fe5b60ff1681526020018260028111156100d757fe5b60ff1681526020019250505060405180910390f35b3480156100f857600080fd5b50610157600480360381019080803573ffffffffffffffffffffffffffffffffffffffff169060200190929190803573ffffffffffffffffffffffffffffffffffffffff16906020019092919080359060200190929190505050610307565b604051808215151515815260200191505060405180910390f35b34801561017d57600080fd5b506101cc600480360381019080803573ffffffffffffffffffffffffffffffffffffffff169060200190929190803560ff169060200190929190803560ff169060200190929190505050610326565b005b3480156101da57600080fd5b5061023c600480360381019080803573ffffffffffffffffffffffffffffffffffffffff169060200190929190803560ff169060200190929190803563ffffffff169060200190929190803563ffffffff1690602001909291905050506103ea565b005b34801561024a57600080fd5b5061027f600480360381019080803573ffffffffffffffffffffffffffffffffffffffff1690602001909291905050506104db565b6040518084600281111561028f57fe5b60ff1681526020018363ffffffff1663ffffffff1681526020018263ffffffff1663ffffffff168152602001935050505060405180910390f35b60016020528060005260406000206000915090508060000160009054906101000a900460ff16908060000160019054906101000a900460ff16905082565b600062015180821115151561031b57600080fd5b600190509392505050565b604080519081016040528083600281111561033d57fe5b815260200182600281111561034e57fe5b815250600160008573ffffffffffffffffffffffffffffffffffffffff1673ffffffffffffffffffffffffffffffffffffffff16815260200190815260200160002060008201518160000160006101000a81548160ff021916908360028111156103b457fe5b021790555060208201518160000160016101000a81548160ff021916908360028111156103dd57fe5b0217905550905050505050565b60606040519081016040528084600281111561040257fe5b81526020018363ffffffff1681526020018263ffffffff168152506000808673ffffffffffffffffffffffffffffffffffffffff1673ffffffffffffffffffffffffffffffffffffffff16815260200190815260200160002060008201518160000160006101000a81548160ff0219169083600281111561047f57fe5b021790555060208201518160000160016101000a81548163ffffffff021916908363ffffffff16021790555060408201518160000160056101000a81548163ffffffff021916908363ffffffff16021790555090505050505050565b60006020528060005260406000206000915090508060000160009054906101000a900460ff16908060000160019054906101000a900463ffffffff16908060000160059054906101000a900463ffffffff169050835600a165627a7a7230582049331e65f7c068f46b8bfb8a74740cc90924fe1110d12a32f116a6c67a0e1bf30029",
  "source": "pragma solidity ^0.4.23;\n\ncontract piiSZGNetwork {\n    \n    enum PersonType { Student, Profesor, Staff}\n    enum UniversityComponenetType { FER, FFZG, FSB}\n  \n    struct Member {\n        //string jmbag;\n        PersonType personType;\n        UniversityComponenetType universityComponenetType;\n        //address membersHashedAddress;\n        //public mapping(uint => bool) access;\n    }\n    struct ControlParameter{\n        bool grantAccess;\n        address membersHashedAddress;\n        //uint timeRequested;\n    }\n    struct UniversityComponenet {\n        //string universityKey;\n        UniversityComponenetType universityComponenetType;\n        uint32 openingTime;\n        uint32 closingTime;\n        //address universityComponenetsHashedAddress;\n        mapping(uint => ControlParameter) access;\n    }\n\n    \n    //hashirat će se u 20bajtnu adresu? i neće moći iterirati\n    mapping(address => UniversityComponenet) public universityComponenets;\n    mapping(address => Member) public members;\n\n    //provjera jesu li dobiveni podatci u ispravnom formatu\n    //pure zato što ne vraća ništa iz memorije niti traži po memoriji\n    function testNum4(string str) private pure returns (bool){\n        bytes memory b = bytes(str);\n        if(b.length != 4) return false;\n        for(uint i; i<4; i++){\n            if(b[i] < 48 || b[i] > 57) return false;\n\n        }\n        return true;\n    }\n    function testNum10(string str) private pure returns (bool){\n        bytes memory b = bytes(str);\n        if(b.length != 10) return false;\n        for(uint i; i<10; i++){\n            if(b[i] < 48 || b[i] > 57) return false;\n        }\n        return true;\n    }    \n    function testStr20(string str) private pure returns (bool){\n        bytes memory b = bytes(str);\n        if(b.length != 20) return false;\n        for(uint i; i<20; i++){\n            if(!((b[i] > 48 && b[i] < 57) || (b[i] > 65 && b[i] < 90) || (b[i] > 97 && b[i] < 122))) return false;\n\n        }\n        return true;\n    }    \n    \n    function createMember(address _hValue, PersonType _personType, UniversityComponenetType _uComponenetType) public {\n        //require(_personType <= 3 && _uComponenetType <= 3);\n        //_member.personType = uint(_personType);\n        members[_hValue] = Member(_personType,_uComponenetType);\n    }\n\n    function createUniversityComponenet(address _hValue, UniversityComponenetType _uComponenetType,uint32 _openingTime, uint32 _closingTime) public {\n        //require(_uComponenetType <= 3);\n        universityComponenets[_hValue] = UniversityComponenet(_uComponenetType, _openingTime, _closingTime);\n        \n    } \n    \n    function callAccessTransaction(address addressHashMember, address addressHashUniversityComponenet, uint ttime) public returns(bool){\n        //require(testStr20(addressHashMember) && testStr20(addressHashUniversityComponenet) && ttime <= 86400);\n        require(ttime <= 86400);\n        \n        return true;\n    }\n    \n    \n    \n/*\n    address chairperson;\n    mapping(address => Voter) voters;\n    Proposal[] proposals;\n\n    /// Create a new ballot with $(_numProposals) different proposals.\n    function Ballot(uint8 _numProposals) public {\n        chairperson = msg.sender;\n        voters[chairperson].weight = 1;\n        proposals.length = _numProposals;\n    }\n\n    /// Give $(toVoter) the right to vote on this ballot.\n    /// May only be called by $(chairperson).\n    function giveRightToVote(address toVoter) public {\n        if (msg.sender != chairperson || voters[toVoter].voted) return;\n        voters[toVoter].weight = 1;\n    }\n\n    /// Delegate your vote to the voter $(to).\n    function delegate(address to) public {\n        Voter storage sender = voters[msg.sender]; // assigns reference\n        if (sender.voted) return;\n        while (voters[to].delegate != address(0) && voters[to].delegate != msg.sender)\n            to = voters[to].delegate;\n        if (to == msg.sender) return;\n        sender.voted = true;\n        sender.delegate = to;\n        Voter storage delegateTo = voters[to];\n        if (delegateTo.voted)\n            proposals[delegateTo.vote].voteCount += sender.weight;\n        else\n            delegateTo.weight += sender.weight;\n    }\n\n    /// Give a single vote to proposal $(toProposal).\n    function vote(uint8 toProposal) public {\n        Voter storage sender = voters[msg.sender];\n        if (sender.voted || toProposal >= proposals.length) return;\n        sender.voted = true;\n        sender.vote = toProposal;\n        proposals[toProposal].voteCount += sender.weight;\n    }\n\n    function winningProposal() public constant returns (uint8 _winningProposal) {\n        uint256 winningVoteCount = 0;\n        for (uint8 prop = 0; prop < proposals.length; prop++)\n            if (proposals[prop].voteCount > winningVoteCount) {\n                winningVoteCount = proposals[prop].voteCount;\n                _winningProposal = prop;\n            }\n    }*/\n}\n",
  "sourcePath": "/home/kresho/Downloads/diplomski/ethereumDIR/truffle/pii-szg-network/contracts/piiSZGNetwork.sol",
  "compiler": {
    "name": "solc",
    "version": "0.4.23+commit.124ca40d.Emscripten.clang"
  },
  "schemaVersion": "2.0.0",
  "updatedAt": "2018-05-07T16:05:28.297Z"
}