{
  "contractName": "piiSZG",
  "abi": [
    {
      "constant": true,
      "inputs": [
        {
          "name": "",
          "type": "address"
        }
      ],
      "name": "members",
      "outputs": [
        {
          "name": "personType",
          "type": "uint8"
        },
        {
          "name": "universityComponenetType",
          "type": "uint8"
        },
        {
          "name": "set",
          "type": "bool"
        },
        {
          "name": "tid",
          "type": "string"
        }
      ],
      "payable": false,
      "stateMutability": "view",
      "type": "function"
    },
    {
      "constant": true,
      "inputs": [
        {
          "name": "",
          "type": "address"
        }
      ],
      "name": "universityComponenets",
      "outputs": [
        {
          "name": "universityComponenetType",
          "type": "uint8"
        },
        {
          "name": "openingTime",
          "type": "uint32"
        },
        {
          "name": "closingTime",
          "type": "uint32"
        },
        {
          "name": "set",
          "type": "bool"
        }
      ],
      "payable": false,
      "stateMutability": "view",
      "type": "function"
    },
    {
      "anonymous": false,
      "inputs": [
        {
          "indexed": false,
          "name": "controlEvent",
          "type": "bool"
        }
      ],
      "name": "ControlEvent",
      "type": "event"
    },
    {
      "constant": true,
      "inputs": [
        {
          "name": "_hValue",
          "type": "address"
        }
      ],
      "name": "getMemberSet",
      "outputs": [
        {
          "name": "",
          "type": "bool"
        }
      ],
      "payable": false,
      "stateMutability": "view",
      "type": "function"
    },
    {
      "constant": true,
      "inputs": [
        {
          "name": "_hValue",
          "type": "address"
        }
      ],
      "name": "getOpeningTime",
      "outputs": [
        {
          "name": "",
          "type": "uint32"
        }
      ],
      "payable": false,
      "stateMutability": "view",
      "type": "function"
    },
    {
      "constant": true,
      "inputs": [
        {
          "name": "_hValue",
          "type": "address"
        }
      ],
      "name": "getClosingTime",
      "outputs": [
        {
          "name": "",
          "type": "uint32"
        }
      ],
      "payable": false,
      "stateMutability": "view",
      "type": "function"
    },
    {
      "constant": true,
      "inputs": [
        {
          "name": "_hValue",
          "type": "address"
        }
      ],
      "name": "getUniversityComponenetSet",
      "outputs": [
        {
          "name": "",
          "type": "bool"
        }
      ],
      "payable": false,
      "stateMutability": "view",
      "type": "function"
    },
    {
      "constant": true,
      "inputs": [
        {
          "name": "_hValue",
          "type": "address"
        },
        {
          "name": "time",
          "type": "uint256"
        }
      ],
      "name": "getAccessFromUC",
      "outputs": [
        {
          "name": "",
          "type": "bool"
        },
        {
          "name": "",
          "type": "address"
        }
      ],
      "payable": false,
      "stateMutability": "view",
      "type": "function"
    },
    {
      "constant": true,
      "inputs": [
        {
          "name": "_hValue",
          "type": "address"
        },
        {
          "name": "time",
          "type": "uint256"
        }
      ],
      "name": "getAccessFromMem",
      "outputs": [
        {
          "name": "",
          "type": "bool"
        },
        {
          "name": "",
          "type": "address"
        }
      ],
      "payable": false,
      "stateMutability": "view",
      "type": "function"
    },
    {
      "constant": false,
      "inputs": [
        {
          "name": "_hValue",
          "type": "address"
        },
        {
          "name": "_personType",
          "type": "uint8"
        },
        {
          "name": "_uComponenetType",
          "type": "uint8"
        },
        {
          "name": "_tid",
          "type": "string"
        }
      ],
      "name": "createMember",
      "outputs": [
        {
          "name": "",
          "type": "bool"
        }
      ],
      "payable": false,
      "stateMutability": "nonpayable",
      "type": "function"
    },
    {
      "constant": false,
      "inputs": [
        {
          "name": "_hValue",
          "type": "address"
        },
        {
          "name": "_uComponenetType",
          "type": "uint8"
        },
        {
          "name": "_openingTime",
          "type": "uint32"
        },
        {
          "name": "_closingTime",
          "type": "uint32"
        }
      ],
      "name": "createUniversityComponenet",
      "outputs": [
        {
          "name": "",
          "type": "bool"
        }
      ],
      "payable": false,
      "stateMutability": "nonpayable",
      "type": "function"
    },
    {
      "constant": false,
      "inputs": [
        {
          "name": "addressHashMember",
          "type": "address"
        },
        {
          "name": "addressHashUniversityComponenet",
          "type": "address"
        },
        {
          "name": "ttime",
          "type": "uint256"
        },
        {
          "name": "transactionDateTime",
          "type": "uint256"
        },
        {
          "name": "tid",
          "type": "string"
        }
      ],
      "name": "callAccessTransaction",
      "outputs": [
        {
          "name": "",
          "type": "bool"
        }
      ],
      "payable": false,
      "stateMutability": "nonpayable",
      "type": "function"
    }
  ],
  "bytecode": "0x6080604052620151806000556003600160006101000a81548160ff021916908360ff16021790555060036001806101000a81548160ff021916908360ff16021790555034801561004e57600080fd5b506129b98061005e6000396000f3006080604052600436106100af576000357c0100000000000000000000000000000000000000000000000000000000900463ffffffff16806308ae4b0c146100b45780631b0949e0146101a55780637aaa80541461020857806387780003146102635780638d0e414d146102eb578063a86c2358146103c0578063bcb617451461047b578063d87dcc1214610511578063f35284ef14610574578063fcbf14961461060c578063fe055ef1146106a4575b600080fd5b3480156100c057600080fd5b506100f5600480360381019080803573ffffffffffffffffffffffffffffffffffffffff1690602001909291905050506106ff565b6040518085600281111561010557fe5b60ff16815260200184600281111561011957fe5b60ff1681526020018315151515815260200180602001828103825283818151815260200191508051906020019080838360005b8381101561016757808201518184015260208101905061014c565b50505050905090810190601f1680156101945780820380516001836020036101000a031916815260200191505b509550505050505060405180910390f35b3480156101b157600080fd5b506101e6600480360381019080803573ffffffffffffffffffffffffffffffffffffffff1690602001909291905050506107ee565b604051808263ffffffff1663ffffffff16815260200191505060405180910390f35b34801561021457600080fd5b50610249600480360381019080803573ffffffffffffffffffffffffffffffffffffffff1690602001909291905050506108ac565b604051808215151515815260200191505060405180910390f35b34801561026f57600080fd5b506102d1600480360381019080803573ffffffffffffffffffffffffffffffffffffffff169060200190929190803560ff169060200190929190803563ffffffff169060200190929190803563ffffffff169060200190929190505050610967565b604051808215151515815260200191505060405180910390f35b3480156102f757600080fd5b506103a6600480360381019080803573ffffffffffffffffffffffffffffffffffffffff169060200190929190803573ffffffffffffffffffffffffffffffffffffffff1690602001909291908035906020019092919080359060200190929190803590602001908201803590602001908080601f0160208091040260200160405190810160405280939291908181526020018383808284378201915050505050509192919290505050610b7b565b604051808215151515815260200191505060405180910390f35b3480156103cc57600080fd5b50610461600480360381019080803573ffffffffffffffffffffffffffffffffffffffff169060200190929190803560ff169060200190929190803560ff169060200190929190803590602001908201803590602001908080601f0160208091040260200160405190810160405280939291908181526020018383808284378201915050505050509192919290505050611685565b604051808215151515815260200191505060405180910390f35b34801561048757600080fd5b506104bc600480360381019080803573ffffffffffffffffffffffffffffffffffffffff1690602001909291905050506118ab565b604051808560028111156104cc57fe5b60ff1681526020018463ffffffff1663ffffffff1681526020018363ffffffff1663ffffffff1681526020018215151515815260200194505050505060405180910390f35b34801561051d57600080fd5b50610552600480360381019080803573ffffffffffffffffffffffffffffffffffffffff169060200190929190505050611915565b604051808263ffffffff1663ffffffff16815260200191505060405180910390f35b34801561058057600080fd5b506105bf600480360381019080803573ffffffffffffffffffffffffffffffffffffffff169060200190929190803590602001909291905050506119d3565b60405180831515151581526020018273ffffffffffffffffffffffffffffffffffffffff1673ffffffffffffffffffffffffffffffffffffffff1681526020019250505060405180910390f35b34801561061857600080fd5b50610657600480360381019080803573ffffffffffffffffffffffffffffffffffffffff16906020019092919080359060200190929190505050611b1e565b60405180831515151581526020018273ffffffffffffffffffffffffffffffffffffffff1673ffffffffffffffffffffffffffffffffffffffff1681526020019250505060405180910390f35b3480156106b057600080fd5b506106e5600480360381019080803573ffffffffffffffffffffffffffffffffffffffff169060200190929190505050611c69565b604051808215151515815260200191505060405180910390f35b60036020528060005260406000206000915090508060000160009054906101000a900460ff16908060000160019054906101000a900460ff16908060000160029054906101000a900460ff1690806001018054600181600116156101000203166002900480601f0160208091040260200160405190810160405280929190818152602001828054600181600116156101000203166002900480156107e45780601f106107b9576101008083540402835291602001916107e4565b820191906000526020600020905b8154815290600101906020018083116107c757829003601f168201915b5050505050905084565b600060011515600260008473ffffffffffffffffffffffffffffffffffffffff1673ffffffffffffffffffffffffffffffffffffffff16815260200190815260200160002060000160099054906101000a900460ff16151514151561085257600080fd5b600260008373ffffffffffffffffffffffffffffffffffffffff1673ffffffffffffffffffffffffffffffffffffffff16815260200190815260200160002060000160059054906101000a900463ffffffff169050919050565b600060011515600260008473ffffffffffffffffffffffffffffffffffffffff1673ffffffffffffffffffffffffffffffffffffffff16815260200190815260200160002060000160099054906101000a900460ff16151514151561091057600080fd5b600260008373ffffffffffffffffffffffffffffffffffffffff1673ffffffffffffffffffffffffffffffffffffffff16815260200190815260200160002060000160099054906101000a900460ff169050919050565b60006001809054906101000a900460ff1660ff1684600281111561098757fe5b10801561099c57506000548363ffffffff1611155b80156109b057506000548263ffffffff1611155b15156109bb57600080fd5b60011515600260008773ffffffffffffffffffffffffffffffffffffffff1673ffffffffffffffffffffffffffffffffffffffff16815260200190815260200160002060000160099054906101000a900460ff16151514151515610a1e57600080fd5b608060405190810160405280856002811115610a3657fe5b81526020018463ffffffff1681526020018363ffffffff16815260200160011515815250600260008773ffffffffffffffffffffffffffffffffffffffff1673ffffffffffffffffffffffffffffffffffffffff16815260200190815260200160002060008201518160000160006101000a81548160ff02191690836002811115610abd57fe5b021790555060208201518160000160016101000a81548163ffffffff021916908363ffffffff16021790555060408201518160000160056101000a81548163ffffffff021916908363ffffffff16021790555060608201518160000160096101000a81548160ff0219169083151502179055509050507f22c6dfbde057f5340f316909b0b1fd76780b7fde3a55e8a155a66787e994e75d6001604051808215151515815260200191505060405180910390a160019050949350505050565b6000806000548511158015610be3575060011515600360008973ffffffffffffffffffffffffffffffffffffffff1673ffffffffffffffffffffffffffffffffffffffff16815260200190815260200160002060000160029054906101000a900460ff161515145b8015610c42575060011515600260008873ffffffffffffffffffffffffffffffffffffffff1673ffffffffffffffffffffffffffffffffffffffff16815260200190815260200160002060000160099054906101000a900460ff161515145b1515610c4d57600080fd5b60011515610c5a84611d24565b1515141515610c6857600080fd5b60009050600360008873ffffffffffffffffffffffffffffffffffffffff1673ffffffffffffffffffffffffffffffffffffffff1681526020019081526020016000206001016040518082805460018160011615610100020316600290048015610d095780601f10610ce7576101008083540402835291820191610d09565b820191906000526020600020905b815481529060010190602001808311610cf5575b5050915050604051809103902060001916836040518082805190602001908083835b602083101515610d505780518252602082019150602081019050602083039250610d2b565b6001836020036101000a038019825116818451168082178552505050505050905001915050604051809103902060001916141515610dcd577f22c6dfbde057f5340f316909b0b1fd76780b7fde3a55e8a155a66787e994e75d6000604051808215151515815260200191505060405180910390a16000915061167b565b610dd887878761215f565b905060011515811515141561100057604080519081016040528082151581526020018873ffffffffffffffffffffffffffffffffffffffff16815250600260008873ffffffffffffffffffffffffffffffffffffffff1673ffffffffffffffffffffffffffffffffffffffff168152602001908152602001600020600101600086815260200190815260200160002060008201518160000160006101000a81548160ff02191690831515021790555060208201518160000160016101000a81548173ffffffffffffffffffffffffffffffffffffffff021916908373ffffffffffffffffffffffffffffffffffffffff160217905550905050604080519081016040528082151581526020018773ffffffffffffffffffffffffffffffffffffffff16815250600360008973ffffffffffffffffffffffffffffffffffffffff1673ffffffffffffffffffffffffffffffffffffffff168152602001908152602001600020600201600086815260200190815260200160002060008201518160000160006101000a81548160ff02191690831515021790555060208201518160000160016101000a81548173ffffffffffffffffffffffffffffffffffffffff021916908373ffffffffffffffffffffffffffffffffffffffff1602179055509050507f22c6dfbde057f5340f316909b0b1fd76780b7fde3a55e8a155a66787e994e75d6001604051808215151515815260200191505060405180910390a16001915061167b565b61100b878787612458565b905060011515811515141561123357604080519081016040528082151581526020018873ffffffffffffffffffffffffffffffffffffffff16815250600260008873ffffffffffffffffffffffffffffffffffffffff1673ffffffffffffffffffffffffffffffffffffffff168152602001908152602001600020600101600086815260200190815260200160002060008201518160000160006101000a81548160ff02191690831515021790555060208201518160000160016101000a81548173ffffffffffffffffffffffffffffffffffffffff021916908373ffffffffffffffffffffffffffffffffffffffff160217905550905050604080519081016040528082151581526020018773ffffffffffffffffffffffffffffffffffffffff16815250600360008973ffffffffffffffffffffffffffffffffffffffff1673ffffffffffffffffffffffffffffffffffffffff168152602001908152602001600020600201600086815260200190815260200160002060008201518160000160006101000a81548160ff02191690831515021790555060208201518160000160016101000a81548173ffffffffffffffffffffffffffffffffffffffff021916908373ffffffffffffffffffffffffffffffffffffffff1602179055509050507f22c6dfbde057f5340f316909b0b1fd76780b7fde3a55e8a155a66787e994e75d6001604051808215151515815260200191505060405180910390a16001915061167b565b61123e878787612722565b905060011515811515141561146657604080519081016040528082151581526020018873ffffffffffffffffffffffffffffffffffffffff16815250600260008873ffffffffffffffffffffffffffffffffffffffff1673ffffffffffffffffffffffffffffffffffffffff168152602001908152602001600020600101600086815260200190815260200160002060008201518160000160006101000a81548160ff02191690831515021790555060208201518160000160016101000a81548173ffffffffffffffffffffffffffffffffffffffff021916908373ffffffffffffffffffffffffffffffffffffffff160217905550905050604080519081016040528082151581526020018773ffffffffffffffffffffffffffffffffffffffff16815250600360008973ffffffffffffffffffffffffffffffffffffffff1673ffffffffffffffffffffffffffffffffffffffff168152602001908152602001600020600201600086815260200190815260200160002060008201518160000160006101000a81548160ff02191690831515021790555060208201518160000160016101000a81548173ffffffffffffffffffffffffffffffffffffffff021916908373ffffffffffffffffffffffffffffffffffffffff1602179055509050507f22c6dfbde057f5340f316909b0b1fd76780b7fde3a55e8a155a66787e994e75d6001604051808215151515815260200191505060405180910390a16001915061167b565b604080519081016040528082151581526020018873ffffffffffffffffffffffffffffffffffffffff16815250600260008873ffffffffffffffffffffffffffffffffffffffff1673ffffffffffffffffffffffffffffffffffffffff168152602001908152602001600020600101600086815260200190815260200160002060008201518160000160006101000a81548160ff02191690831515021790555060208201518160000160016101000a81548173ffffffffffffffffffffffffffffffffffffffff021916908373ffffffffffffffffffffffffffffffffffffffff160217905550905050604080519081016040528082151581526020018773ffffffffffffffffffffffffffffffffffffffff16815250600360008973ffffffffffffffffffffffffffffffffffffffff1673ffffffffffffffffffffffffffffffffffffffff168152602001908152602001600020600201600086815260200190815260200160002060008201518160000160006101000a81548160ff02191690831515021790555060208201518160000160016101000a81548173ffffffffffffffffffffffffffffffffffffffff021916908373ffffffffffffffffffffffffffffffffffffffff1602179055509050507f22c6dfbde057f5340f316909b0b1fd76780b7fde3a55e8a155a66787e994e75d6000604051808215151515815260200191505060405180910390a1600091505b5095945050505050565b6000600160009054906101000a900460ff1660ff168460028111156116a657fe5b1080156116ce57506001809054906101000a900460ff1660ff168360028111156116cc57fe5b105b15156116d957600080fd5b60011515600360008773ffffffffffffffffffffffffffffffffffffffff1673ffffffffffffffffffffffffffffffffffffffff16815260200190815260200160002060000160029054906101000a900460ff1615151415151561173c57600080fd5b6001151561174983611d24565b151514151561175757600080fd5b60806040519081016040528085600281111561176f57fe5b815260200184600281111561178057fe5b815260200160011515815260200183815250600360008773ffffffffffffffffffffffffffffffffffffffff1673ffffffffffffffffffffffffffffffffffffffff16815260200190815260200160002060008201518160000160006101000a81548160ff021916908360028111156117f557fe5b021790555060208201518160000160016101000a81548160ff0219169083600281111561181e57fe5b021790555060408201518160000160026101000a81548160ff021916908315150217905550606082015181600101908051906020019061185f929190612865565b509050507f22c6dfbde057f5340f316909b0b1fd76780b7fde3a55e8a155a66787e994e75d6001604051808215151515815260200191505060405180910390a160019050949350505050565b60026020528060005260406000206000915090508060000160009054906101000a900460ff16908060000160019054906101000a900463ffffffff16908060000160059054906101000a900463ffffffff16908060000160099054906101000a900460ff16905084565b600060011515600260008473ffffffffffffffffffffffffffffffffffffffff1673ffffffffffffffffffffffffffffffffffffffff16815260200190815260200160002060000160099054906101000a900460ff16151514151561197957600080fd5b600260008373ffffffffffffffffffffffffffffffffffffffff1673ffffffffffffffffffffffffffffffffffffffff16815260200190815260200160002060000160019054906101000a900463ffffffff169050919050565b60008060011515600260008673ffffffffffffffffffffffffffffffffffffffff1673ffffffffffffffffffffffffffffffffffffffff16815260200190815260200160002060000160099054906101000a900460ff161515141515611a3857600080fd5b600260008573ffffffffffffffffffffffffffffffffffffffff1673ffffffffffffffffffffffffffffffffffffffff168152602001908152602001600020600101600084815260200190815260200160002060000160009054906101000a900460ff16600260008673ffffffffffffffffffffffffffffffffffffffff1673ffffffffffffffffffffffffffffffffffffffff168152602001908152602001600020600101600085815260200190815260200160002060000160019054906101000a900473ffffffffffffffffffffffffffffffffffffffff16915091509250929050565b60008060011515600360008673ffffffffffffffffffffffffffffffffffffffff1673ffffffffffffffffffffffffffffffffffffffff16815260200190815260200160002060000160029054906101000a900460ff161515141515611b8357600080fd5b600360008573ffffffffffffffffffffffffffffffffffffffff1673ffffffffffffffffffffffffffffffffffffffff168152602001908152602001600020600201600084815260200190815260200160002060000160009054906101000a900460ff16600360008673ffffffffffffffffffffffffffffffffffffffff1673ffffffffffffffffffffffffffffffffffffffff168152602001908152602001600020600201600085815260200190815260200160002060000160019054906101000a900473ffffffffffffffffffffffffffffffffffffffff16915091509250929050565b600060011515600360008473ffffffffffffffffffffffffffffffffffffffff1673ffffffffffffffffffffffffffffffffffffffff16815260200190815260200160002060000160029054906101000a900460ff161515141515611ccd57600080fd5b600360008373ffffffffffffffffffffffffffffffffffffffff1673ffffffffffffffffffffffffffffffffffffffff16815260200190815260200160002060000160029054906101000a900460ff169050919050565b60006060600083915060188251141515611d415760009250612158565b5b60188110156121535760307f0100000000000000000000000000000000000000000000000000000000000000028282815181101515611d7d57fe5b9060200101517f010000000000000000000000000000000000000000000000000000000000000090047f0100000000000000000000000000000000000000000000000000000000000000027effffffffffffffffffffffffffffffffffffffffffffffffffffffffffffff191610158015611e95575060397f0100000000000000000000000000000000000000000000000000000000000000028282815181101515611e2557fe5b9060200101517f010000000000000000000000000000000000000000000000000000000000000090047f0100000000000000000000000000000000000000000000000000000000000000027effffffffffffffffffffffffffffffffffffffffffffffffffffffffffffff191611155b80611fe6575060417f0100000000000000000000000000000000000000000000000000000000000000028282815181101515611ecd57fe5b9060200101517f010000000000000000000000000000000000000000000000000000000000000090047f0100000000000000000000000000000000000000000000000000000000000000027effffffffffffffffffffffffffffffffffffffffffffffffffffffffffffff191610158015611fe55750605a7f0100000000000000000000000000000000000000000000000000000000000000028282815181101515611f7557fe5b9060200101517f010000000000000000000000000000000000000000000000000000000000000090047f0100000000000000000000000000000000000000000000000000000000000000027effffffffffffffffffffffffffffffffffffffffffffffffffffffffffffff191611155b5b80612137575060617f010000000000000000000000000000000000000000000000000000000000000002828281518110151561201e57fe5b9060200101517f010000000000000000000000000000000000000000000000000000000000000090047f0100000000000000000000000000000000000000000000000000000000000000027effffffffffffffffffffffffffffffffffffffffffffffffffffffffffffff1916101580156121365750607a7f01000000000000000000000000000000000000000000000000000000000000000282828151811015156120c657fe5b9060200101517f010000000000000000000000000000000000000000000000000000000000000090047f0100000000000000000000000000000000000000000000000000000000000000027effffffffffffffffffffffffffffffffffffffffffffffffffffffffffffff191611155b5b15156121465760009250612158565b8080600101915050611d42565b600192505b5050919050565b60006121696128e5565b612171612927565b600260008673ffffffffffffffffffffffffffffffffffffffff1673ffffffffffffffffffffffffffffffffffffffff168152602001908152602001600020608060405190810160405290816000820160009054906101000a900460ff1660028111156121da57fe5b60028111156121e557fe5b81526020016000820160019054906101000a900463ffffffff1663ffffffff1663ffffffff1681526020016000820160059054906101000a900463ffffffff1663ffffffff1663ffffffff1681526020016000820160099054906101000a900460ff1615151515815250509150600360008773ffffffffffffffffffffffffffffffffffffffff1673ffffffffffffffffffffffffffffffffffffffff168152602001908152602001600020608060405190810160405290816000820160009054906101000a900460ff1660028111156122bb57fe5b60028111156122c657fe5b81526020016000820160019054906101000a900460ff1660028111156122e857fe5b60028111156122f357fe5b81526020016000820160029054906101000a900460ff16151515158152602001600182018054600181600116156101000203166002900480601f0160208091040260200160405190810160405280929190818152602001828054600181600116156101000203166002900480156123ab5780601f10612380576101008083540402835291602001916123ab565b820191906000526020600020905b81548152906001019060200180831161238e57829003601f168201915b5050505050815250509050806020015160028111156123c657fe5b826000015160028111156123d657fe5b141561244a57816020015163ffffffff1684101580156124005750816040015163ffffffff168411155b1561240e576001925061244f565b60018160000151600281111561242057fe5b148061243b575060028160000151600281111561243957fe5b145b15612449576001925061244f565b5b600092505b50509392505050565b60006124626128e5565b61246a612927565b600260008673ffffffffffffffffffffffffffffffffffffffff1673ffffffffffffffffffffffffffffffffffffffff168152602001908152602001600020608060405190810160405290816000820160009054906101000a900460ff1660028111156124d357fe5b60028111156124de57fe5b81526020016000820160019054906101000a900463ffffffff1663ffffffff1663ffffffff1681526020016000820160059054906101000a900463ffffffff1663ffffffff1663ffffffff1681526020016000820160099054906101000a900460ff1615151515815250509150600360008773ffffffffffffffffffffffffffffffffffffffff1673ffffffffffffffffffffffffffffffffffffffff168152602001908152602001600020608060405190810160405290816000820160009054906101000a900460ff1660028111156125b457fe5b60028111156125bf57fe5b81526020016000820160019054906101000a900460ff1660028111156125e157fe5b60028111156125ec57fe5b81526020016000820160029054906101000a900460ff16151515158152602001600182018054600181600116156101000203166002900480601f0160208091040260200160405190810160405280929190818152602001828054600181600116156101000203166002900480156126a45780601f10612679576101008083540402835291602001916126a4565b820191906000526020600020905b81548152906001019060200180831161268757829003601f168201915b50505050508152505090506000816000015160028111156126c157fe5b14806126dc57506001816000015160028111156126da57fe5b145b1561271457816020015163ffffffff1684101580156127055750816040015163ffffffff168411155b156127135760019250612719565b5b600092505b50509392505050565b600061272c6128e5565b600260008573ffffffffffffffffffffffffffffffffffffffff1673ffffffffffffffffffffffffffffffffffffffff168152602001908152602001600020608060405190810160405290816000820160009054906101000a900460ff16600281111561279557fe5b60028111156127a057fe5b81526020016000820160019054906101000a900463ffffffff1663ffffffff1663ffffffff1681526020016000820160059054906101000a900463ffffffff1663ffffffff1663ffffffff1681526020016000820160099054906101000a900460ff161515151581525050905060008160000151600281111561281f57fe5b141561285857806020015163ffffffff1683101580156128495750806040015163ffffffff168311155b15612857576001915061285d565b5b600091505b509392505050565b828054600181600116156101000203166002900490600052602060002090601f016020900481019282601f106128a657805160ff19168380011785556128d4565b828001600101855582156128d4579182015b828111156128d35782518255916020019190600101906128b8565b5b5090506128e19190612968565b5090565b608060405190810160405280600060028111156128fe57fe5b8152602001600063ffffffff168152602001600063ffffffff1681526020016000151581525090565b6080604051908101604052806000600281111561294057fe5b81526020016000600281111561295257fe5b8152602001600015158152602001606081525090565b61298a91905b8082111561298657600081600090555060010161296e565b5090565b905600a165627a7a72305820451b13832357f805ed9e32a8d34e9df131bcec77b944cf4f2b3cdab4bdd523360029",
  "source": "pragma solidity ^0.4.23;\n\ncontract piiSZG {\n    \n    //enums za laku provjeru tipova sastavnica sveuilita i osoba\n    enum PersonType { Student, Profesor, Staff}\n    enum UniversityComponenetType { FER, FFZG, FSB}\n    \n    event ControlEvent(\n        bool controlEvent\n    );\n    \n    uint timeInDay = 86400;\n    uint8 numOfPersonType = 3;\n    uint8 numOfUniversityComponenetType = 3;\n  \n  \n    //struktura za zapis kontrole ulaza sadri bool \n    //jeli doputen ulaz te hash osobe koja je zatraila pristup\n    struct ControlParameter{\n        bool grantAccess;\n        address hashedAddress;\n\n    }\n\n    //struktura Member/Osoba, sadri enums tipOsobe i \n    //tipFakulteta te bool set za provjeru postoji li \n    struct Member {\n        //string jmbag;\n        PersonType personType;\n        UniversityComponenetType universityComponenetType;\n        bool set;\n        string tid;\n        //address membersHashedAddress;\n        mapping(uint => ControlParameter) accessM;\n    }\n    \n    //struktura sastavnica sveuilita sadrri enum tipa fakulteta, \n    //radno vrijeme u sekundama te bool set za provjeru postoji li i \n    //zapis kontrole ulaza za tu sastvniu \n    struct UniversityComponenet {\n        //string universityKey;\n        UniversityComponenetType universityComponenetType;\n        uint32 openingTime;\n        uint32 closingTime;\n        //address universityComponenetsHashedAddress;\n        bool set;\n        mapping(uint => ControlParameter) access;\n\n    }\n    \n    //hashirat e se u 20bajtnu adresu? i nee moi iterirati?\n    //mapa svih komponenti sveuilita i svih osoba preko hasha jmbaga/universityKeya\n    mapping(address => UniversityComponenet) public universityComponenets;\n    mapping(address => Member) public members;\n    \n    //getteri za osobu, zakomentirani getteri se ne koriste i samo troe gas\n    /*function getPersonType(address _hValue) public view returns (uint){\n        require(members[_hValue].set == true);\n        return uint(members[_hValue].personType);\n    }\n    function getUniversityComponenetTypeMem(address _hValue) public view returns (uint){\n        require(members[_hValue].set == true);\n        return uint(members[_hValue].universityComponenetType);\n    }*/\n    function getMemberSet(address _hValue) public view returns (bool){\n        require(members[_hValue].set == true);\n        return members[_hValue].set;\n    }\n\n    //getteri za sveuilinu komponentu\n    /*function getUniversityComponenetTypeUC(address _hValue) public view returns (uint){\n        require(universityComponenets[_hValue].set == true);\n        return uint(universityComponenets[_hValue].universityComponenetType);\n    }*/    \n    function getOpeningTime(address _hValue) public view returns (uint32){\n        require(universityComponenets[_hValue].set == true);\n        return universityComponenets[_hValue].openingTime;\n    }\n    function getClosingTime(address _hValue) public view returns (uint32){\n        require(universityComponenets[_hValue].set == true);\n        return universityComponenets[_hValue].closingTime;\n    }\n    function getUniversityComponenetSet(address _hValue) public view returns (bool ){\n        require(universityComponenets[_hValue].set == true);\n        return universityComponenets[_hValue].set;\n    }\n    function getAccessFromUC(address _hValue, uint time) public view returns (bool, address){\n        require(universityComponenets[_hValue].set == true);\n        return (universityComponenets[_hValue].access[time].grantAccess, universityComponenets[_hValue].access[time].hashedAddress);\n    }\n    function getAccessFromMem(address _hValue, uint time) public view returns (bool, address){\n        require(members[_hValue].set == true);\n        return (members[_hValue].accessM[time].grantAccess, members[_hValue].accessM[time].hashedAddress);\n    }\n    \n\n    //pomone funckije\n    //provjera jesu li dobiveni podatci u ispravnom formatu\n    //pure zato to ne vraa nita iz memorije niti trai po memoriji\n    function testNum4(string str) internal pure returns (bool){\n        bytes memory b = bytes(str);\n        if(b.length != 4) return false;\n        for(uint i; i<4; i++){\n            if(b[i] < 48 || b[i] > 57) return false;\n\n        }\n        return true;\n    }\n    function testNum10(string str) internal pure returns (bool){\n        bytes memory b = bytes(str);\n        if(b.length != 10) return false;\n        for(uint i; i<10; i++){\n            if(b[i] < 48 || b[i] > 57) return false;\n        }\n        return true;\n    }    \n    function testStr24(string str) internal pure returns (bool){\n        bytes memory b = bytes(str);\n        if(b.length != 24) return false;\n        for(uint i; i<24; i++){\n            if(!((b[i] >= 48 && b[i] <= 57) || (b[i] >= 65 && b[i] <= 90) || (b[i] >= 97 && b[i] <= 122))) return false;\n\n        }\n        return true;\n    }    \n\n    //kreiranje nove osobe na temelju unosa hashedValue jmbaga\n    function createMember(address _hValue, PersonType _personType, UniversityComponenetType _uComponenetType, string _tid) public returns(bool){\n        require(uint(_personType) < numOfPersonType && uint(_uComponenetType) < numOfUniversityComponenetType);\n        require(members[_hValue].set != true);\n        require(testStr24(_tid) == true);\n        //svejedno koji nain, oba su ispravna, prvi je krai-1liner\n        members[_hValue] = Member(_personType,_uComponenetType,true,_tid);\n        //members[_hValue].personType = _personType;\n        //members[_hValue].universityComponenetType = _uComponenetType;\n        //members[_hValue].set = true;\n        emit ControlEvent(true);\n        return true;\n    }\n\n\n    //kreiranje nove komponente sveuilita na temelju unosa hashedValue universityKeya\n    function createUniversityComponenet(address _hValue, UniversityComponenetType _uComponenetType,uint32 _openingTime, uint32 _closingTime) public returns(bool){\n        require(uint(_uComponenetType) < numOfUniversityComponenetType && _openingTime <= timeInDay && _closingTime <= timeInDay);\n        //_hValue = msg.sender;\n        require(universityComponenets[_hValue].set != true);\n        //registerUC(_hValue);\n        universityComponenets[_hValue] = UniversityComponenet(_uComponenetType, _openingTime, _closingTime,true);\n        emit ControlEvent(true);\n        return true;\n    } \n    \n    //funkcija za provjeru i kreiranje transakcije te zove interne funkcije koje provjeravaju logike cijeline te na temelju toga radi transakciju\n    function callAccessTransaction(address addressHashMember, address addressHashUniversityComponenet, uint ttime, uint transactionDateTime, string tid) public returns(bool){\n        //require(testStr20(addressHashMember) && testStr20(addressHashUniversityComponenet) && ttime <= timeInDay);\n        require(ttime <= timeInDay && members[addressHashMember].set == true && universityComponenets[addressHashUniversityComponenet].set == true);\n        require(testStr24(tid) == true);\n        bool _access = false;\n        \n        //provjera jeli dostavljeni tid jednak onome zapisanom u memberu preko hasha, troi puno manje gasa\n        if(keccak256(tid) != keccak256(members[addressHashMember].tid)){\n            emit ControlEvent(false);\n            return false;\n        }\n        \n        //addressHashUniversityComponenet = msg.sender;\n        _access = checkSameUniversityOpenedOrPrivileged(addressHashMember,addressHashUniversityComponenet,ttime);\n        if(_access == true){\n            universityComponenets[addressHashUniversityComponenet].access[transactionDateTime] = ControlParameter(_access,addressHashMember);\n            members[addressHashMember].accessM[transactionDateTime] = ControlParameter(_access,addressHashUniversityComponenet);\n            emit ControlEvent(true);\n            return true;\n        }\n        _access = checkNotSameUniversityOpenedStudentProfesor(addressHashMember,addressHashUniversityComponenet,ttime);    \n        if(_access == true){\n            universityComponenets[addressHashUniversityComponenet].access[transactionDateTime] = ControlParameter(_access,addressHashMember);\n            members[addressHashMember].accessM[transactionDateTime] = ControlParameter(_access,addressHashUniversityComponenet);\n            emit ControlEvent(true);\n            return true;\n        }\n        _access = checkNotSameUniversityOpenedFER(addressHashMember,addressHashUniversityComponenet,ttime);    \n        if(_access == true){\n            universityComponenets[addressHashUniversityComponenet].access[transactionDateTime] = ControlParameter(_access,addressHashMember);\n            members[addressHashMember].accessM[transactionDateTime] = ControlParameter(_access,addressHashUniversityComponenet);\n            emit ControlEvent(true);\n            return true;\n        }\n        universityComponenets[addressHashUniversityComponenet].access[transactionDateTime] = ControlParameter(_access,addressHashMember);\n        members[addressHashMember].accessM[transactionDateTime] = ControlParameter(_access,addressHashUniversityComponenet);\n        emit ControlEvent(false);\n        return false;    \n    }\n    \n    //funkcije za reguliranje ulaza podijeljenje prema logikim komponentama\n    function checkSameUniversityOpenedOrPrivileged(address addressHashMember, address addressHashUniversityComponenet, uint ttime) internal view returns(bool){\n        UniversityComponenet memory _universityComponenet = universityComponenets[addressHashUniversityComponenet];\n        Member memory _member = members[addressHashMember]; \n        if(_universityComponenet.universityComponenetType == _member.universityComponenetType){\n            if(ttime >= _universityComponenet.openingTime && ttime <= _universityComponenet.closingTime)\n                return true;\n            else if(uint(_member.personType) == 1 || uint(_member.personType) == 2)\n                return true;\n        }\n        return false;    \n    }\n    function checkNotSameUniversityOpenedStudentProfesor(address addressHashMember, address addressHashUniversityComponenet, uint ttime) internal view returns(bool){\n        UniversityComponenet memory _universityComponenet = universityComponenets[addressHashUniversityComponenet];\n        Member memory _member = members[addressHashMember]; \n        if(uint(_member.personType) == 0 || uint(_member.personType) == 1){\n            if(ttime >= _universityComponenet.openingTime && ttime <= _universityComponenet.closingTime)\n                return true;\n        }\n        return false;\n    }\n    function checkNotSameUniversityOpenedFER(address addressHashMember, address addressHashUniversityComponenet, uint ttime) internal view returns(bool){\n        UniversityComponenet memory _universityComponenet = universityComponenets[addressHashUniversityComponenet];\n        //Member memory  _member = members[addressHashMember]; \n        if(uint(_universityComponenet.universityComponenetType) == 0){\n            if(ttime >= _universityComponenet.openingTime && ttime <= _universityComponenet.closingTime)\n                return true;\n        }\n        return false;\n    }\n}\n\n",
  "sourcePath": "/home/kresho/Downloads/diplomski/ethereumDIR/truffle/pii-szg/contracts/piiSZG.sol",
  "compiler": {
    "name": "solc",
    "version": "0.4.23+commit.124ca40d.Emscripten.clang"
  },
  "schemaVersion": "2.0.0",
  "updatedAt": "2018-05-22T12:58:41.983Z"
}