{
  "contractName": "piiSZG",
  "abi": [
    {
      "constant": true,
      "inputs": [
        {
          "name": "",
          "type": "address"
        }
      ],
      "name": "members",
      "outputs": [
        {
          "name": "personType",
          "type": "uint8"
        },
        {
          "name": "universityComponenetType",
          "type": "uint8"
        },
        {
          "name": "set",
          "type": "bool"
        }
      ],
      "payable": false,
      "stateMutability": "view",
      "type": "function"
    },
    {
      "constant": true,
      "inputs": [
        {
          "name": "",
          "type": "address"
        }
      ],
      "name": "universityComponenets",
      "outputs": [
        {
          "name": "universityComponenetType",
          "type": "uint8"
        },
        {
          "name": "openingTime",
          "type": "uint32"
        },
        {
          "name": "closingTime",
          "type": "uint32"
        },
        {
          "name": "set",
          "type": "bool"
        }
      ],
      "payable": false,
      "stateMutability": "view",
      "type": "function"
    },
    {
      "constant": true,
      "inputs": [
        {
          "name": "_hValue",
          "type": "address"
        }
      ],
      "name": "getPersonType",
      "outputs": [
        {
          "name": "personType",
          "type": "uint256"
        }
      ],
      "payable": false,
      "stateMutability": "view",
      "type": "function"
    },
    {
      "constant": true,
      "inputs": [
        {
          "name": "_hValue",
          "type": "address"
        }
      ],
      "name": "getUniversityComponenetTypeMem",
      "outputs": [
        {
          "name": "universityComponenetTypeMem",
          "type": "uint256"
        }
      ],
      "payable": false,
      "stateMutability": "view",
      "type": "function"
    },
    {
      "constant": true,
      "inputs": [
        {
          "name": "_hValue",
          "type": "address"
        }
      ],
      "name": "getMemberSet",
      "outputs": [
        {
          "name": "memberSet",
          "type": "bool"
        }
      ],
      "payable": false,
      "stateMutability": "view",
      "type": "function"
    },
    {
      "constant": true,
      "inputs": [
        {
          "name": "_hValue",
          "type": "address"
        }
      ],
      "name": "getUniversityComponenetTypeUC",
      "outputs": [
        {
          "name": "universityComponenetTypeUC",
          "type": "uint256"
        }
      ],
      "payable": false,
      "stateMutability": "view",
      "type": "function"
    },
    {
      "constant": true,
      "inputs": [
        {
          "name": "_hValue",
          "type": "address"
        }
      ],
      "name": "getOpeningTime",
      "outputs": [
        {
          "name": "openingTime",
          "type": "uint32"
        }
      ],
      "payable": false,
      "stateMutability": "view",
      "type": "function"
    },
    {
      "constant": true,
      "inputs": [
        {
          "name": "_hValue",
          "type": "address"
        }
      ],
      "name": "getClosingTime",
      "outputs": [
        {
          "name": "closingTime",
          "type": "uint32"
        }
      ],
      "payable": false,
      "stateMutability": "view",
      "type": "function"
    },
    {
      "constant": true,
      "inputs": [
        {
          "name": "_hValue",
          "type": "address"
        }
      ],
      "name": "getUniversityComponenetSet",
      "outputs": [
        {
          "name": "universityComponenetSet",
          "type": "bool"
        }
      ],
      "payable": false,
      "stateMutability": "view",
      "type": "function"
    },
    {
      "constant": true,
      "inputs": [
        {
          "name": "_hValue",
          "type": "address"
        },
        {
          "name": "time",
          "type": "uint256"
        }
      ],
      "name": "getAccess",
      "outputs": [
        {
          "name": "grantAccess",
          "type": "bool"
        },
        {
          "name": "membersHashedAddress",
          "type": "address"
        }
      ],
      "payable": false,
      "stateMutability": "view",
      "type": "function"
    },
    {
      "constant": false,
      "inputs": [
        {
          "name": "_hValue",
          "type": "address"
        },
        {
          "name": "_personType",
          "type": "uint8"
        },
        {
          "name": "_uComponenetType",
          "type": "uint8"
        }
      ],
      "name": "createMember",
      "outputs": [
        {
          "name": "creationSuccessful",
          "type": "bool"
        }
      ],
      "payable": false,
      "stateMutability": "nonpayable",
      "type": "function"
    },
    {
      "constant": false,
      "inputs": [
        {
          "name": "_hValue",
          "type": "address"
        },
        {
          "name": "_uComponenetType",
          "type": "uint8"
        },
        {
          "name": "_openingTime",
          "type": "uint32"
        },
        {
          "name": "_closingTime",
          "type": "uint32"
        }
      ],
      "name": "createUniversityComponenet",
      "outputs": [
        {
          "name": "creationSuccessful",
          "type": "bool"
        }
      ],
      "payable": false,
      "stateMutability": "nonpayable",
      "type": "function"
    },
    {
      "constant": false,
      "inputs": [
        {
          "name": "addressHashMember",
          "type": "address"
        },
        {
          "name": "addressHashUniversityComponenet",
          "type": "address"
        },
        {
          "name": "ttime",
          "type": "uint256"
        },
        {
          "name": "CurrentTransactionTime",
          "type": "uint256"
        }
      ],
      "name": "callAccessTransaction",
      "outputs": [
        {
          "name": "creationSuccessful",
          "type": "bool"
        }
      ],
      "payable": false,
      "stateMutability": "nonpayable",
      "type": "function"
    }
  ],
  "bytecode": "0x608060405234801561001057600080fd5b50611c73806100206000396000f3006080604052600436106100c5576000357c0100000000000000000000000000000000000000000000000000000000900463ffffffff16806308ae4b0c146100ca5780631b0949e01461014f578063603a6c42146101b25780637458a020146102415780637aaa8054146102b65780637d6b820b14610311578063877800031461036857806392d714e9146103f05780639a52742b14610447578063bcb617451461049e578063d87dcc1214610534578063ebd6b18614610597578063fe055ef11461062f575b600080fd5b3480156100d657600080fd5b5061010b600480360381019080803573ffffffffffffffffffffffffffffffffffffffff16906020019092919050505061068a565b6040518084600281111561011b57fe5b60ff16815260200183600281111561012f57fe5b60ff16815260200182151515158152602001935050505060405180910390f35b34801561015b57600080fd5b50610190600480360381019080803573ffffffffffffffffffffffffffffffffffffffff1690602001909291905050506106db565b604051808263ffffffff1663ffffffff16815260200191505060405180910390f35b3480156101be57600080fd5b50610227600480360381019080803573ffffffffffffffffffffffffffffffffffffffff169060200190929190803573ffffffffffffffffffffffffffffffffffffffff1690602001909291908035906020019092919080359060200190929190505050610797565b604051808215151515815260200191505060405180910390f35b34801561024d57600080fd5b5061029c600480360381019080803573ffffffffffffffffffffffffffffffffffffffff169060200190929190803560ff169060200190929190803560ff169060200190929190505050610c88565b604051808215151515815260200191505060405180910390f35b3480156102c257600080fd5b506102f7600480360381019080803573ffffffffffffffffffffffffffffffffffffffff169060200190929190505050610e12565b604051808215151515815260200191505060405180910390f35b34801561031d57600080fd5b50610352600480360381019080803573ffffffffffffffffffffffffffffffffffffffff169060200190929190505050610ecb565b6040518082815260200191505060405180910390f35b34801561037457600080fd5b506103d6600480360381019080803573ffffffffffffffffffffffffffffffffffffffff169060200190929190803560ff169060200190929190803563ffffffff169060200190929190803563ffffffff169060200190929190505050610f8f565b604051808215151515815260200191505060405180910390f35b3480156103fc57600080fd5b50610431600480360381019080803573ffffffffffffffffffffffffffffffffffffffff169060200190929190505050611157565b6040518082815260200191505060405180910390f35b34801561045357600080fd5b50610488600480360381019080803573ffffffffffffffffffffffffffffffffffffffff16906020019092919050505061121d565b6040518082815260200191505060405180910390f35b3480156104aa57600080fd5b506104df600480360381019080803573ffffffffffffffffffffffffffffffffffffffff1690602001909291905050506112e3565b604051808560028111156104ef57fe5b60ff1681526020018463ffffffff1663ffffffff1681526020018363ffffffff1663ffffffff1681526020018215151515815260200194505050505060405180910390f35b34801561054057600080fd5b50610575600480360381019080803573ffffffffffffffffffffffffffffffffffffffff16906020019092919050505061134d565b604051808263ffffffff1663ffffffff16815260200191505060405180910390f35b3480156105a357600080fd5b506105e2600480360381019080803573ffffffffffffffffffffffffffffffffffffffff16906020019092919080359060200190929190505050611409565b60405180831515151581526020018273ffffffffffffffffffffffffffffffffffffffff1673ffffffffffffffffffffffffffffffffffffffff1681526020019250505060405180910390f35b34801561063b57600080fd5b50610670600480360381019080803573ffffffffffffffffffffffffffffffffffffffff169060200190929190505050611551565b604051808215151515815260200191505060405180910390f35b60016020528060005260406000206000915090508060000160009054906101000a900460ff16908060000160019054906101000a900460ff16908060000160029054906101000a900460ff16905083565b6000600115156000808473ffffffffffffffffffffffffffffffffffffffff1673ffffffffffffffffffffffffffffffffffffffff16815260200190815260200160002060000160099054906101000a900460ff16151514151561073e57600080fd5b6000808373ffffffffffffffffffffffffffffffffffffffff1673ffffffffffffffffffffffffffffffffffffffff16815260200190815260200160002060000160059054906101000a900463ffffffff169050919050565b600080620151808411158015610800575060011515600160008873ffffffffffffffffffffffffffffffffffffffff1673ffffffffffffffffffffffffffffffffffffffff16815260200190815260200160002060000160029054906101000a900460ff161515145b801561085e5750600115156000808773ffffffffffffffffffffffffffffffffffffffff1673ffffffffffffffffffffffffffffffffffffffff16815260200190815260200160002060000160099054906101000a900460ff161515145b151561086957600080fd5b6000905061087886868661160c565b905060011515811515141561097957604080519081016040528082151581526020018773ffffffffffffffffffffffffffffffffffffffff168152506000808773ffffffffffffffffffffffffffffffffffffffff1673ffffffffffffffffffffffffffffffffffffffff168152602001908152602001600020600101600085815260200190815260200160002060008201518160000160006101000a81548160ff02191690831515021790555060208201518160000160016101000a81548173ffffffffffffffffffffffffffffffffffffffff021916908373ffffffffffffffffffffffffffffffffffffffff16021790555090505060019150610c7f565b610984868686611862565b9050600115158115151415610a8557604080519081016040528082151581526020018773ffffffffffffffffffffffffffffffffffffffff168152506000808773ffffffffffffffffffffffffffffffffffffffff1673ffffffffffffffffffffffffffffffffffffffff168152602001908152602001600020600101600085815260200190815260200160002060008201518160000160006101000a81548160ff02191690831515021790555060208201518160000160016101000a81548173ffffffffffffffffffffffffffffffffffffffff021916908373ffffffffffffffffffffffffffffffffffffffff16021790555090505060019150610c7f565b610a90868686611a89565b9050600115158115151415610b9157604080519081016040528082151581526020018773ffffffffffffffffffffffffffffffffffffffff168152506000808773ffffffffffffffffffffffffffffffffffffffff1673ffffffffffffffffffffffffffffffffffffffff168152602001908152602001600020600101600085815260200190815260200160002060008201518160000160006101000a81548160ff02191690831515021790555060208201518160000160016101000a81548173ffffffffffffffffffffffffffffffffffffffff021916908373ffffffffffffffffffffffffffffffffffffffff16021790555090505060019150610c7f565b604080519081016040528082151581526020018773ffffffffffffffffffffffffffffffffffffffff168152506000808773ffffffffffffffffffffffffffffffffffffffff1673ffffffffffffffffffffffffffffffffffffffff168152602001908152602001600020600101600085815260200190815260200160002060008201518160000160006101000a81548160ff02191690831515021790555060208201518160000160016101000a81548173ffffffffffffffffffffffffffffffffffffffff021916908373ffffffffffffffffffffffffffffffffffffffff160217905550905050600091505b50949350505050565b60006003836002811115610c9857fe5b108015610cb057506003826002811115610cae57fe5b105b1515610cbb57600080fd5b60011515600160008673ffffffffffffffffffffffffffffffffffffffff1673ffffffffffffffffffffffffffffffffffffffff16815260200190815260200160002060000160029054906101000a900460ff16151514151515610d1e57600080fd5b606060405190810160405280846002811115610d3657fe5b8152602001836002811115610d4757fe5b815260200160011515815250600160008673ffffffffffffffffffffffffffffffffffffffff1673ffffffffffffffffffffffffffffffffffffffff16815260200190815260200160002060008201518160000160006101000a81548160ff02191690836002811115610db657fe5b021790555060208201518160000160016101000a81548160ff02191690836002811115610ddf57fe5b021790555060408201518160000160026101000a81548160ff021916908315150217905550905050600190509392505050565b6000600115156000808473ffffffffffffffffffffffffffffffffffffffff1673ffffffffffffffffffffffffffffffffffffffff16815260200190815260200160002060000160099054906101000a900460ff161515141515610e7557600080fd5b6000808373ffffffffffffffffffffffffffffffffffffffff1673ffffffffffffffffffffffffffffffffffffffff16815260200190815260200160002060000160099054906101000a900460ff169050919050565b6000600115156000808473ffffffffffffffffffffffffffffffffffffffff1673ffffffffffffffffffffffffffffffffffffffff16815260200190815260200160002060000160099054906101000a900460ff161515141515610f2e57600080fd5b6000808373ffffffffffffffffffffffffffffffffffffffff1673ffffffffffffffffffffffffffffffffffffffff16815260200190815260200160002060000160009054906101000a900460ff166002811115610f8857fe5b9050919050565b60006003846002811115610f9f57fe5b108015610fb55750620151808363ffffffff1611155b8015610fca5750620151808263ffffffff1611155b1515610fd557600080fd5b600115156000808773ffffffffffffffffffffffffffffffffffffffff1673ffffffffffffffffffffffffffffffffffffffff16815260200190815260200160002060000160099054906101000a900460ff1615151415151561103757600080fd5b60806040519081016040528085600281111561104f57fe5b81526020018463ffffffff1681526020018363ffffffff168152602001600115158152506000808773ffffffffffffffffffffffffffffffffffffffff1673ffffffffffffffffffffffffffffffffffffffff16815260200190815260200160002060008201518160000160006101000a81548160ff021916908360028111156110d557fe5b021790555060208201518160000160016101000a81548163ffffffff021916908363ffffffff16021790555060408201518160000160056101000a81548163ffffffff021916908363ffffffff16021790555060608201518160000160096101000a81548160ff02191690831515021790555090505060019050949350505050565b600060011515600160008473ffffffffffffffffffffffffffffffffffffffff1673ffffffffffffffffffffffffffffffffffffffff16815260200190815260200160002060000160029054906101000a900460ff1615151415156111bb57600080fd5b600160008373ffffffffffffffffffffffffffffffffffffffff1673ffffffffffffffffffffffffffffffffffffffff16815260200190815260200160002060000160009054906101000a900460ff16600281111561121657fe5b9050919050565b600060011515600160008473ffffffffffffffffffffffffffffffffffffffff1673ffffffffffffffffffffffffffffffffffffffff16815260200190815260200160002060000160029054906101000a900460ff16151514151561128157600080fd5b600160008373ffffffffffffffffffffffffffffffffffffffff1673ffffffffffffffffffffffffffffffffffffffff16815260200190815260200160002060000160019054906101000a900460ff1660028111156112dc57fe5b9050919050565b60006020528060005260406000206000915090508060000160009054906101000a900460ff16908060000160019054906101000a900463ffffffff16908060000160059054906101000a900463ffffffff16908060000160099054906101000a900460ff16905084565b6000600115156000808473ffffffffffffffffffffffffffffffffffffffff1673ffffffffffffffffffffffffffffffffffffffff16815260200190815260200160002060000160099054906101000a900460ff1615151415156113b057600080fd5b6000808373ffffffffffffffffffffffffffffffffffffffff1673ffffffffffffffffffffffffffffffffffffffff16815260200190815260200160002060000160019054906101000a900463ffffffff169050919050565b600080600115156000808673ffffffffffffffffffffffffffffffffffffffff1673ffffffffffffffffffffffffffffffffffffffff16815260200190815260200160002060000160099054906101000a900460ff16151514151561146d57600080fd5b6000808573ffffffffffffffffffffffffffffffffffffffff1673ffffffffffffffffffffffffffffffffffffffff168152602001908152602001600020600101600084815260200190815260200160002060000160009054906101000a900460ff166000808673ffffffffffffffffffffffffffffffffffffffff1673ffffffffffffffffffffffffffffffffffffffff168152602001908152602001600020600101600085815260200190815260200160002060000160019054906101000a900473ffffffffffffffffffffffffffffffffffffffff16915091509250929050565b600060011515600160008473ffffffffffffffffffffffffffffffffffffffff1673ffffffffffffffffffffffffffffffffffffffff16815260200190815260200160002060000160029054906101000a900460ff1615151415156115b557600080fd5b600160008373ffffffffffffffffffffffffffffffffffffffff1673ffffffffffffffffffffffffffffffffffffffff16815260200190815260200160002060000160029054906101000a900460ff169050919050565b6000611616611bcb565b61161e611c0d565b6000808673ffffffffffffffffffffffffffffffffffffffff1673ffffffffffffffffffffffffffffffffffffffff168152602001908152602001600020608060405190810160405290816000820160009054906101000a900460ff16600281111561168657fe5b600281111561169157fe5b81526020016000820160019054906101000a900463ffffffff1663ffffffff1663ffffffff1681526020016000820160059054906101000a900463ffffffff1663ffffffff1663ffffffff1681526020016000820160099054906101000a900460ff1615151515815250509150600160008773ffffffffffffffffffffffffffffffffffffffff1673ffffffffffffffffffffffffffffffffffffffff168152602001908152602001600020606060405190810160405290816000820160009054906101000a900460ff16600281111561176757fe5b600281111561177257fe5b81526020016000820160019054906101000a900460ff16600281111561179457fe5b600281111561179f57fe5b81526020016000820160029054906101000a900460ff1615151515815250509050806020015160028111156117d057fe5b826000015160028111156117e057fe5b141561185457816020015163ffffffff16841015801561180a5750816040015163ffffffff168411155b156118185760019250611859565b60018160000151600281111561182a57fe5b1480611845575060028160000151600281111561184357fe5b145b156118535760019250611859565b5b600092505b50509392505050565b600061186c611bcb565b611874611c0d565b6000808673ffffffffffffffffffffffffffffffffffffffff1673ffffffffffffffffffffffffffffffffffffffff168152602001908152602001600020608060405190810160405290816000820160009054906101000a900460ff1660028111156118dc57fe5b60028111156118e757fe5b81526020016000820160019054906101000a900463ffffffff1663ffffffff1663ffffffff1681526020016000820160059054906101000a900463ffffffff1663ffffffff1663ffffffff1681526020016000820160099054906101000a900460ff1615151515815250509150600160008773ffffffffffffffffffffffffffffffffffffffff1673ffffffffffffffffffffffffffffffffffffffff168152602001908152602001600020606060405190810160405290816000820160009054906101000a900460ff1660028111156119bd57fe5b60028111156119c857fe5b81526020016000820160019054906101000a900460ff1660028111156119ea57fe5b60028111156119f557fe5b81526020016000820160029054906101000a900460ff1615151515815250509050600081600001516002811115611a2857fe5b1480611a435750600181600001516002811115611a4157fe5b145b15611a7b57816020015163ffffffff168410158015611a6c5750816040015163ffffffff168411155b15611a7a5760019250611a80565b5b600092505b50509392505050565b6000611a93611bcb565b6000808573ffffffffffffffffffffffffffffffffffffffff1673ffffffffffffffffffffffffffffffffffffffff168152602001908152602001600020608060405190810160405290816000820160009054906101000a900460ff166002811115611afb57fe5b6002811115611b0657fe5b81526020016000820160019054906101000a900463ffffffff1663ffffffff1663ffffffff1681526020016000820160059054906101000a900463ffffffff1663ffffffff1663ffffffff1681526020016000820160099054906101000a900460ff1615151515815250509050600081600001516002811115611b8557fe5b1415611bbe57806020015163ffffffff168310158015611baf5750806040015163ffffffff168311155b15611bbd5760019150611bc3565b5b600091505b509392505050565b60806040519081016040528060006002811115611be457fe5b8152602001600063ffffffff168152602001600063ffffffff1681526020016000151581525090565b60606040519081016040528060006002811115611c2657fe5b815260200160006002811115611c3857fe5b815260200160001515815250905600a165627a7a7230582085792b217f7ef101909cdc582d806dfcf63dffababaa00da9556cbb5c2e490670029",
  "source": "pragma solidity ^0.4.23;\n\ncontract piiSZG {\n    \n    //enums za lakšu provjeru tipova sastavnica sveučilišta i osoba\n    enum PersonType { Student, Profesor, Staff}\n    enum UniversityComponenetType { FER, FFZG, FSB}\n  \n    //struktura Member/Osoba, sadrži enums tipOsobe i \n    //tipFakulteta te bool set za provjeru postoji li \n    struct Member {\n        //string jmbag;\n        PersonType personType;\n        UniversityComponenetType universityComponenetType;\n        bool set;\n        //address membersHashedAddress;\n        //public mapping(uint => bool) access;\n    }\n    \n    //struktura za zapis kontrole ulaza sadrži bool \n    //jeli dopušten ulaz te hash osobe koja je zatražila pristup\n    struct ControlParameter{\n        bool grantAccess;\n        address membersHashedAddress;\n        \n        //uint timeRequested;\n    }\n    /*event ControlAccess(\n        bool controlAccess\n    );*/\n    \n    //struktura sastavnica sveučilišta sadrrži enum tipa fakulteta, \n    //radno vrijeme u sekundama te bool set za provjeru postoji li i \n    //zapis kontrole ulaza za tu sastvniu \n    struct UniversityComponenet {\n        //string universityKey;\n        UniversityComponenetType universityComponenetType;\n        uint32 openingTime;\n        uint32 closingTime;\n        //address universityComponenetsHashedAddress;\n        bool set;\n        mapping(uint => ControlParameter) access;\n\n    }\n    \n    //hashirat će se u 20bajtnu adresu? i neće moći iterirati?\n    //mapa svih komponenti sveučilišta i svih osoba preko hasha jmbaga/universityKeya\n    mapping(address => UniversityComponenet) public universityComponenets;\n    mapping(address => Member) public members;\n    \n    /* Data layer za mapping\n    mapping(uint256 => address) public memberSequence;\n    uint256 public numberOfMembers = 0;\n    address[] listOfAddressesMem;\n    mapping(address => bool) registeredMem;\n\n    function registerMember(address _member) public {\n        //only unregistered users will be registered\n        require(!registeredMem[_member]);\n        memberSequence[numberOfMembers++] = _member;\n        listOfAddressesMem.push(_member);\n        registeredMem[_member] = true;\n    }\n    \n    mapping(uint256 => address) public UCSequence;\n    uint256 public numberOfUniversityComponenets = 0;\n    address[] listOfAddressesUC;\n    mapping(address => bool) registeredUC;\n\n    function registerUC(address _universityComponenet) public {\n        //only unregistered users will be registered\n        require(!registeredUC[_universityComponenet]);\n        UCSequence[numberOfUniversityComponenets++] = _universityComponenet;\n        listOfAddressesUC.push(_universityComponenet);\n        registeredUC[_universityComponenet] = true;\n    }*/\n    //getteri za osobu\n    function getPersonType(address _hValue) public view returns (uint personType){\n        require(members[_hValue].set == true);\n        return uint(members[_hValue].personType);\n    }\n    function getUniversityComponenetTypeMem(address _hValue) public view returns (uint universityComponenetTypeMem){\n        require(members[_hValue].set == true);\n        return uint(members[_hValue].universityComponenetType);\n    }\n    function getMemberSet(address _hValue) public view returns (bool memberSet){\n        require(members[_hValue].set == true);\n        return members[_hValue].set;\n    }\n\n    //getteri za sveučilišnu komponentu\n    function getUniversityComponenetTypeUC(address _hValue) public view returns (uint universityComponenetTypeUC){\n        require(universityComponenets[_hValue].set == true);\n        return uint(universityComponenets[_hValue].universityComponenetType);\n    }    \n    function getOpeningTime(address _hValue) public view returns (uint32 openingTime){\n        require(universityComponenets[_hValue].set == true);\n        return universityComponenets[_hValue].openingTime;\n    }\n    function getClosingTime(address _hValue) public view returns (uint32 closingTime){\n        require(universityComponenets[_hValue].set == true);\n        return universityComponenets[_hValue].closingTime;\n    }\n    function getUniversityComponenetSet(address _hValue) public view returns (bool universityComponenetSet){\n        require(universityComponenets[_hValue].set == true);\n        return universityComponenets[_hValue].set;\n    }\n    function getAccess(address _hValue, uint time) public view returns (bool grantAccess, address membersHashedAddress){\n        require(universityComponenets[_hValue].set == true);\n        return (universityComponenets[_hValue].access[time].grantAccess, universityComponenets[_hValue].access[time].membersHashedAddress);\n        //return extractControlParameterStructToBytes(universityComponenets[_hValue].access[time]);\n    }\n    \n\n    //pomoćne funckije\n    //provjera jesu li dobiveni podatci u ispravnom formatu\n    //pure zato što ne vraća ništa iz memorije niti traži po memoriji\n    //vraća byteove strukture ControlParameter zato što ne postoji concanate\n    function testNum4(string str) internal pure returns (bool){\n        bytes memory b = bytes(str);\n        if(b.length != 4) return false;\n        for(uint i; i<4; i++){\n            if(b[i] < 48 || b[i] > 57) return false;\n\n        }\n        return true;\n    }\n    function testNum10(string str) internal pure returns (bool){\n        bytes memory b = bytes(str);\n        if(b.length != 10) return false;\n        for(uint i; i<10; i++){\n            if(b[i] < 48 || b[i] > 57) return false;\n        }\n        return true;\n    }    \n    function testStr20(string str) internal pure returns (bool){\n        bytes memory b = bytes(str);\n        if(b.length != 20) return false;\n        for(uint i; i<20; i++){\n            if(!((b[i] > 48 && b[i] < 57) || (b[i] > 65 && b[i] < 90) || (b[i] > 97 && b[i] < 122))) return false;\n\n        }\n        return true;\n    }    \n\n    //kreiranje nove osobe na temelju unosa hashedValue jmbaga\n    function createMember(address _hValue, PersonType _personType, UniversityComponenetType _uComponenetType) public returns(bool creationSuccessful){\n        require(uint(_personType) < 3 && uint(_uComponenetType) < 3);\n        require(members[_hValue].set != true);\n        //registerMember(_hValue);\n        members[_hValue] = Member(_personType,_uComponenetType,true);\n        return true;\n    }\n\n    //kreiranje nove komponente sveučilišta na temelju unosa hashedValue universityKeya\n    function createUniversityComponenet(address _hValue, UniversityComponenetType _uComponenetType,uint32 _openingTime, uint32 _closingTime) public returns(bool creationSuccessful){\n        require(uint(_uComponenetType) < 3 && _openingTime <= 86400 && _closingTime <= 86400);\n        //_hValue = msg.sender;\n        require(universityComponenets[_hValue].set != true);\n        //registerUC(_hValue);\n        universityComponenets[_hValue] = UniversityComponenet(_uComponenetType, _openingTime, _closingTime,true);\n        return true;\n    } \n    \n    //funkcija za provjeru i kreiranje transakcije te zove interne funkcije koje provjeravaju logičke cijeline te na temelju toga radi transakciju\n    function callAccessTransaction(address addressHashMember, address addressHashUniversityComponenet, uint ttime, uint CurrentTransactionTime) public returns(bool creationSuccessful){\n        //require(testStr20(addressHashMember) && testStr20(addressHashUniversityComponenet) && ttime <= 86400);\n        require(ttime <= 86400 && members[addressHashMember].set == true && universityComponenets[addressHashUniversityComponenet].set == true);\n        bool _access = false;\n        //addressHashUniversityComponenet = msg.sender;\n        _access = checkFirstCondition(addressHashMember,addressHashUniversityComponenet,ttime);\n        if(_access == true){\n            universityComponenets[addressHashUniversityComponenet].access[CurrentTransactionTime] = ControlParameter(_access,addressHashMember);\n            //emit ControlAccess(true);\n            return true;\n        }\n        _access = checkSecondCondition(addressHashMember,addressHashUniversityComponenet,ttime);    \n        if(_access == true){\n            universityComponenets[addressHashUniversityComponenet].access[CurrentTransactionTime] = ControlParameter(_access,addressHashMember);\n            //emit ControlAccess(true);\n            return true;\n        }\n        _access = checkThirdCondition(addressHashMember,addressHashUniversityComponenet,ttime);    \n        if(_access == true){\n            universityComponenets[addressHashUniversityComponenet].access[CurrentTransactionTime] = ControlParameter(_access,addressHashMember);\n            //emit ControlAccess(true);\n            return true;\n        }\n        universityComponenets[addressHashUniversityComponenet].access[CurrentTransactionTime] = ControlParameter(_access,addressHashMember);\n        //emit ControlAccess(false);\n        return false;    \n    }\n    \n    //funkcije za reguliranje ulaza podijeljenje prema logičkim komponentama\n    function checkFirstCondition(address addressHashMember, address addressHashUniversityComponenet, uint ttime) internal view returns(bool){\n        UniversityComponenet memory _universityComponenet = universityComponenets[addressHashUniversityComponenet];\n        Member memory _member = members[addressHashMember]; \n        if(_universityComponenet.universityComponenetType == _member.universityComponenetType){\n            if(ttime >= _universityComponenet.openingTime && ttime <= _universityComponenet.closingTime)\n                return true;\n            else if(uint(_member.personType) == 1 || uint(_member.personType) == 2)\n                return true;\n        }\n        return false;    \n    }\n    function checkSecondCondition(address addressHashMember, address addressHashUniversityComponenet, uint ttime) internal view returns(bool){\n        UniversityComponenet memory _universityComponenet = universityComponenets[addressHashUniversityComponenet];\n        Member memory _member = members[addressHashMember]; \n        if(uint(_member.personType) == 0 || uint(_member.personType) == 1){\n            if(ttime >= _universityComponenet.openingTime && ttime <= _universityComponenet.closingTime)\n                return true;\n        }\n        return false;\n    }\n    function checkThirdCondition(address addressHashMember, address addressHashUniversityComponenet, uint ttime) internal view returns(bool){\n        UniversityComponenet memory _universityComponenet = universityComponenets[addressHashUniversityComponenet];\n        //Member memory  _member = members[addressHashMember]; \n        if(uint(_universityComponenet.universityComponenetType) == 0){\n            if(ttime >= _universityComponenet.openingTime && ttime <= _universityComponenet.closingTime)\n                return true;\n        }\n        return false;\n    }\n}\n\n",
  "sourcePath": "/home/kresho/Downloads/diplomski/ethereumDIR/truffle/pii-szg-network/contracts/piiSZG.sol",
  "compiler": {
    "name": "solc",
    "version": "0.4.23+commit.124ca40d.Emscripten.clang"
  },
  "schemaVersion": "2.0.0",
  "updatedAt": "2018-05-09T20:40:08.153Z"
}