{
  "contractName": "piiSZG",
  "abi": [
    {
      "constant": true,
      "inputs": [
        {
          "name": "",
          "type": "address"
        }
      ],
      "name": "members",
      "outputs": [
        {
          "name": "personType",
          "type": "uint8"
        },
        {
          "name": "universityComponenetType",
          "type": "uint8"
        },
        {
          "name": "set",
          "type": "bool"
        },
        {
          "name": "tid",
          "type": "string"
        }
      ],
      "payable": false,
      "stateMutability": "view",
      "type": "function"
    },
    {
      "constant": true,
      "inputs": [
        {
          "name": "",
          "type": "address"
        }
      ],
      "name": "universityComponenets",
      "outputs": [
        {
          "name": "universityComponenetType",
          "type": "uint8"
        },
        {
          "name": "openingTime",
          "type": "uint32"
        },
        {
          "name": "closingTime",
          "type": "uint32"
        },
        {
          "name": "set",
          "type": "bool"
        }
      ],
      "payable": false,
      "stateMutability": "view",
      "type": "function"
    },
    {
      "anonymous": false,
      "inputs": [
        {
          "indexed": false,
          "name": "controlEvent",
          "type": "bool"
        }
      ],
      "name": "ControlEvent",
      "type": "event"
    },
    {
      "anonymous": false,
      "inputs": [
        {
          "indexed": false,
          "name": "controlEvent",
          "type": "uint256"
        }
      ],
      "name": "eventTemp",
      "type": "event"
    },
    {
      "constant": true,
      "inputs": [
        {
          "name": "_hValue",
          "type": "address"
        }
      ],
      "name": "getPersonType",
      "outputs": [
        {
          "name": "",
          "type": "uint256"
        }
      ],
      "payable": false,
      "stateMutability": "view",
      "type": "function"
    },
    {
      "constant": true,
      "inputs": [
        {
          "name": "_hValue",
          "type": "address"
        }
      ],
      "name": "getUniversityComponenetTypeMem",
      "outputs": [
        {
          "name": "",
          "type": "uint256"
        }
      ],
      "payable": false,
      "stateMutability": "view",
      "type": "function"
    },
    {
      "constant": true,
      "inputs": [
        {
          "name": "_hValue",
          "type": "address"
        }
      ],
      "name": "getMemberSet",
      "outputs": [
        {
          "name": "",
          "type": "bool"
        }
      ],
      "payable": false,
      "stateMutability": "view",
      "type": "function"
    },
    {
      "constant": true,
      "inputs": [
        {
          "name": "_hValue",
          "type": "address"
        }
      ],
      "name": "getUniversityComponenetTypeUC",
      "outputs": [
        {
          "name": "",
          "type": "uint256"
        }
      ],
      "payable": false,
      "stateMutability": "view",
      "type": "function"
    },
    {
      "constant": true,
      "inputs": [
        {
          "name": "_hValue",
          "type": "address"
        }
      ],
      "name": "getOpeningTime",
      "outputs": [
        {
          "name": "",
          "type": "uint32"
        }
      ],
      "payable": false,
      "stateMutability": "view",
      "type": "function"
    },
    {
      "constant": true,
      "inputs": [
        {
          "name": "_hValue",
          "type": "address"
        }
      ],
      "name": "getClosingTime",
      "outputs": [
        {
          "name": "",
          "type": "uint32"
        }
      ],
      "payable": false,
      "stateMutability": "view",
      "type": "function"
    },
    {
      "constant": true,
      "inputs": [
        {
          "name": "_hValue",
          "type": "address"
        }
      ],
      "name": "getUniversityComponenetSet",
      "outputs": [
        {
          "name": "",
          "type": "bool"
        }
      ],
      "payable": false,
      "stateMutability": "view",
      "type": "function"
    },
    {
      "constant": true,
      "inputs": [
        {
          "name": "_hValue",
          "type": "address"
        },
        {
          "name": "time",
          "type": "uint256"
        }
      ],
      "name": "getAccess",
      "outputs": [
        {
          "name": "",
          "type": "bool"
        },
        {
          "name": "",
          "type": "address"
        }
      ],
      "payable": false,
      "stateMutability": "view",
      "type": "function"
    },
    {
      "constant": false,
      "inputs": [
        {
          "name": "_hValue",
          "type": "address"
        },
        {
          "name": "_personType",
          "type": "uint8"
        },
        {
          "name": "_uComponenetType",
          "type": "uint8"
        },
        {
          "name": "_tid",
          "type": "string"
        }
      ],
      "name": "createMember",
      "outputs": [
        {
          "name": "",
          "type": "bool"
        }
      ],
      "payable": false,
      "stateMutability": "nonpayable",
      "type": "function"
    },
    {
      "constant": false,
      "inputs": [
        {
          "name": "_hValue",
          "type": "address"
        },
        {
          "name": "_uComponenetType",
          "type": "uint8"
        },
        {
          "name": "_openingTime",
          "type": "uint32"
        },
        {
          "name": "_closingTime",
          "type": "uint32"
        }
      ],
      "name": "createUniversityComponenet",
      "outputs": [
        {
          "name": "",
          "type": "bool"
        }
      ],
      "payable": false,
      "stateMutability": "nonpayable",
      "type": "function"
    },
    {
      "constant": false,
      "inputs": [
        {
          "name": "addressHashMember",
          "type": "address"
        },
        {
          "name": "addressHashUniversityComponenet",
          "type": "address"
        },
        {
          "name": "ttime",
          "type": "uint256"
        },
        {
          "name": "transactionDateTime",
          "type": "uint256"
        },
        {
          "name": "tid",
          "type": "string"
        }
      ],
      "name": "callAccessTransaction",
      "outputs": [
        {
          "name": "",
          "type": "bool"
        }
      ],
      "payable": false,
      "stateMutability": "nonpayable",
      "type": "function"
    }
  ],
  "bytecode": "0x6080604052620151806000556003600160006101000a81548160ff021916908360ff16021790555060036001806101000a81548160ff021916908360ff16021790555034801561004e57600080fd5b5061279b8061005e6000396000f3006080604052600436106100c5576000357c0100000000000000000000000000000000000000000000000000000000900463ffffffff16806308ae4b0c146100ca5780631b0949e0146101bb5780637aaa80541461021e5780637d6b820b1461027957806387780003146102d05780638d0e414d1461035857806392d714e91461042d5780639a52742b14610484578063a86c2358146104db578063bcb6174514610596578063d87dcc121461062c578063ebd6b1861461068f578063fe055ef114610727575b600080fd5b3480156100d657600080fd5b5061010b600480360381019080803573ffffffffffffffffffffffffffffffffffffffff169060200190929190505050610782565b6040518085600281111561011b57fe5b60ff16815260200184600281111561012f57fe5b60ff1681526020018315151515815260200180602001828103825283818151815260200191508051906020019080838360005b8381101561017d578082015181840152602081019050610162565b50505050905090810190601f1680156101aa5780820380516001836020036101000a031916815260200191505b509550505050505060405180910390f35b3480156101c757600080fd5b506101fc600480360381019080803573ffffffffffffffffffffffffffffffffffffffff169060200190929190505050610871565b604051808263ffffffff1663ffffffff16815260200191505060405180910390f35b34801561022a57600080fd5b5061025f600480360381019080803573ffffffffffffffffffffffffffffffffffffffff16906020019092919050505061092f565b604051808215151515815260200191505060405180910390f35b34801561028557600080fd5b506102ba600480360381019080803573ffffffffffffffffffffffffffffffffffffffff1690602001909291905050506109ea565b6040518082815260200191505060405180910390f35b3480156102dc57600080fd5b5061033e600480360381019080803573ffffffffffffffffffffffffffffffffffffffff169060200190929190803560ff169060200190929190803563ffffffff169060200190929190803563ffffffff169060200190929190505050610ab0565b604051808215151515815260200191505060405180910390f35b34801561036457600080fd5b50610413600480360381019080803573ffffffffffffffffffffffffffffffffffffffff169060200190929190803573ffffffffffffffffffffffffffffffffffffffff1690602001909291908035906020019092919080359060200190929190803590602001908201803590602001908080601f0160208091040260200160405190810160405280939291908181526020018383808284378201915050505050509192919290505050610cc4565b604051808215151515815260200191505060405180910390f35b34801561043957600080fd5b5061046e600480360381019080803573ffffffffffffffffffffffffffffffffffffffff169060200190929190505050611426565b6040518082815260200191505060405180910390f35b34801561049057600080fd5b506104c5600480360381019080803573ffffffffffffffffffffffffffffffffffffffff1690602001909291905050506114ec565b6040518082815260200191505060405180910390f35b3480156104e757600080fd5b5061057c600480360381019080803573ffffffffffffffffffffffffffffffffffffffff169060200190929190803560ff169060200190929190803560ff169060200190929190803590602001908201803590602001908080601f01602080910402602001604051908101604052809392919081815260200183838082843782019150505050505091929192905050506115b2565b604051808215151515815260200191505060405180910390f35b3480156105a257600080fd5b506105d7600480360381019080803573ffffffffffffffffffffffffffffffffffffffff1690602001909291905050506117d8565b604051808560028111156105e757fe5b60ff1681526020018463ffffffff1663ffffffff1681526020018363ffffffff1663ffffffff1681526020018215151515815260200194505050505060405180910390f35b34801561063857600080fd5b5061066d600480360381019080803573ffffffffffffffffffffffffffffffffffffffff169060200190929190505050611842565b604051808263ffffffff1663ffffffff16815260200191505060405180910390f35b34801561069b57600080fd5b506106da600480360381019080803573ffffffffffffffffffffffffffffffffffffffff16906020019092919080359060200190929190505050611900565b60405180831515151581526020018273ffffffffffffffffffffffffffffffffffffffff1673ffffffffffffffffffffffffffffffffffffffff1681526020019250505060405180910390f35b34801561073357600080fd5b50610768600480360381019080803573ffffffffffffffffffffffffffffffffffffffff169060200190929190505050611a4b565b604051808215151515815260200191505060405180910390f35b60036020528060005260406000206000915090508060000160009054906101000a900460ff16908060000160019054906101000a900460ff16908060000160029054906101000a900460ff1690806001018054600181600116156101000203166002900480601f0160208091040260200160405190810160405280929190818152602001828054600181600116156101000203166002900480156108675780601f1061083c57610100808354040283529160200191610867565b820191906000526020600020905b81548152906001019060200180831161084a57829003601f168201915b5050505050905084565b600060011515600260008473ffffffffffffffffffffffffffffffffffffffff1673ffffffffffffffffffffffffffffffffffffffff16815260200190815260200160002060000160099054906101000a900460ff1615151415156108d557600080fd5b600260008373ffffffffffffffffffffffffffffffffffffffff1673ffffffffffffffffffffffffffffffffffffffff16815260200190815260200160002060000160059054906101000a900463ffffffff169050919050565b600060011515600260008473ffffffffffffffffffffffffffffffffffffffff1673ffffffffffffffffffffffffffffffffffffffff16815260200190815260200160002060000160099054906101000a900460ff16151514151561099357600080fd5b600260008373ffffffffffffffffffffffffffffffffffffffff1673ffffffffffffffffffffffffffffffffffffffff16815260200190815260200160002060000160099054906101000a900460ff169050919050565b600060011515600260008473ffffffffffffffffffffffffffffffffffffffff1673ffffffffffffffffffffffffffffffffffffffff16815260200190815260200160002060000160099054906101000a900460ff161515141515610a4e57600080fd5b600260008373ffffffffffffffffffffffffffffffffffffffff1673ffffffffffffffffffffffffffffffffffffffff16815260200190815260200160002060000160009054906101000a900460ff166002811115610aa957fe5b9050919050565b60006001809054906101000a900460ff1660ff16846002811115610ad057fe5b108015610ae557506000548363ffffffff1611155b8015610af957506000548263ffffffff1611155b1515610b0457600080fd5b60011515600260008773ffffffffffffffffffffffffffffffffffffffff1673ffffffffffffffffffffffffffffffffffffffff16815260200190815260200160002060000160099054906101000a900460ff16151514151515610b6757600080fd5b608060405190810160405280856002811115610b7f57fe5b81526020018463ffffffff1681526020018363ffffffff16815260200160011515815250600260008773ffffffffffffffffffffffffffffffffffffffff1673ffffffffffffffffffffffffffffffffffffffff16815260200190815260200160002060008201518160000160006101000a81548160ff02191690836002811115610c0657fe5b021790555060208201518160000160016101000a81548163ffffffff021916908363ffffffff16021790555060408201518160000160056101000a81548163ffffffff021916908363ffffffff16021790555060608201518160000160096101000a81548160ff0219169083151502179055509050507f22c6dfbde057f5340f316909b0b1fd76780b7fde3a55e8a155a66787e994e75d6001604051808215151515815260200191505060405180910390a160019050949350505050565b6000806000548511158015610d2c575060011515600360008973ffffffffffffffffffffffffffffffffffffffff1673ffffffffffffffffffffffffffffffffffffffff16815260200190815260200160002060000160029054906101000a900460ff161515145b8015610d8b575060011515600260008873ffffffffffffffffffffffffffffffffffffffff1673ffffffffffffffffffffffffffffffffffffffff16815260200190815260200160002060000160099054906101000a900460ff161515145b1515610d9657600080fd5b60011515610da384611b06565b1515141515610db157600080fd5b60009050600360008873ffffffffffffffffffffffffffffffffffffffff1673ffffffffffffffffffffffffffffffffffffffff1681526020019081526020016000206001016040518082805460018160011615610100020316600290048015610e525780601f10610e30576101008083540402835291820191610e52565b820191906000526020600020905b815481529060010190602001808311610e3e575b5050915050604051809103902060001916836040518082805190602001908083835b602083101515610e995780518252602082019150602081019050602083039250610e74565b6001836020036101000a038019825116818451168082178552505050505050905001915050604051809103902060001916141515610f16577f22c6dfbde057f5340f316909b0b1fd76780b7fde3a55e8a155a66787e994e75d6000604051808215151515815260200191505060405180910390a16000915061141c565b610f21878787611f41565b905060011515811515141561105f57604080519081016040528082151581526020018873ffffffffffffffffffffffffffffffffffffffff16815250600260008873ffffffffffffffffffffffffffffffffffffffff1673ffffffffffffffffffffffffffffffffffffffff168152602001908152602001600020600101600086815260200190815260200160002060008201518160000160006101000a81548160ff02191690831515021790555060208201518160000160016101000a81548173ffffffffffffffffffffffffffffffffffffffff021916908373ffffffffffffffffffffffffffffffffffffffff1602179055509050507f22c6dfbde057f5340f316909b0b1fd76780b7fde3a55e8a155a66787e994e75d6001604051808215151515815260200191505060405180910390a16001915061141c565b61106a87878761223a565b90506001151581151514156111a857604080519081016040528082151581526020018873ffffffffffffffffffffffffffffffffffffffff16815250600260008873ffffffffffffffffffffffffffffffffffffffff1673ffffffffffffffffffffffffffffffffffffffff168152602001908152602001600020600101600086815260200190815260200160002060008201518160000160006101000a81548160ff02191690831515021790555060208201518160000160016101000a81548173ffffffffffffffffffffffffffffffffffffffff021916908373ffffffffffffffffffffffffffffffffffffffff1602179055509050507f22c6dfbde057f5340f316909b0b1fd76780b7fde3a55e8a155a66787e994e75d6001604051808215151515815260200191505060405180910390a16001915061141c565b6111b3878787612504565b90506001151581151514156112f157604080519081016040528082151581526020018873ffffffffffffffffffffffffffffffffffffffff16815250600260008873ffffffffffffffffffffffffffffffffffffffff1673ffffffffffffffffffffffffffffffffffffffff168152602001908152602001600020600101600086815260200190815260200160002060008201518160000160006101000a81548160ff02191690831515021790555060208201518160000160016101000a81548173ffffffffffffffffffffffffffffffffffffffff021916908373ffffffffffffffffffffffffffffffffffffffff1602179055509050507f22c6dfbde057f5340f316909b0b1fd76780b7fde3a55e8a155a66787e994e75d6001604051808215151515815260200191505060405180910390a16001915061141c565b604080519081016040528082151581526020018873ffffffffffffffffffffffffffffffffffffffff16815250600260008873ffffffffffffffffffffffffffffffffffffffff1673ffffffffffffffffffffffffffffffffffffffff168152602001908152602001600020600101600086815260200190815260200160002060008201518160000160006101000a81548160ff02191690831515021790555060208201518160000160016101000a81548173ffffffffffffffffffffffffffffffffffffffff021916908373ffffffffffffffffffffffffffffffffffffffff1602179055509050507f22c6dfbde057f5340f316909b0b1fd76780b7fde3a55e8a155a66787e994e75d6000604051808215151515815260200191505060405180910390a1600091505b5095945050505050565b600060011515600360008473ffffffffffffffffffffffffffffffffffffffff1673ffffffffffffffffffffffffffffffffffffffff16815260200190815260200160002060000160029054906101000a900460ff16151514151561148a57600080fd5b600360008373ffffffffffffffffffffffffffffffffffffffff1673ffffffffffffffffffffffffffffffffffffffff16815260200190815260200160002060000160009054906101000a900460ff1660028111156114e557fe5b9050919050565b600060011515600360008473ffffffffffffffffffffffffffffffffffffffff1673ffffffffffffffffffffffffffffffffffffffff16815260200190815260200160002060000160029054906101000a900460ff16151514151561155057600080fd5b600360008373ffffffffffffffffffffffffffffffffffffffff1673ffffffffffffffffffffffffffffffffffffffff16815260200190815260200160002060000160019054906101000a900460ff1660028111156115ab57fe5b9050919050565b6000600160009054906101000a900460ff1660ff168460028111156115d357fe5b1080156115fb57506001809054906101000a900460ff1660ff168360028111156115f957fe5b105b151561160657600080fd5b60011515600360008773ffffffffffffffffffffffffffffffffffffffff1673ffffffffffffffffffffffffffffffffffffffff16815260200190815260200160002060000160029054906101000a900460ff1615151415151561166957600080fd5b6001151561167683611b06565b151514151561168457600080fd5b60806040519081016040528085600281111561169c57fe5b81526020018460028111156116ad57fe5b815260200160011515815260200183815250600360008773ffffffffffffffffffffffffffffffffffffffff1673ffffffffffffffffffffffffffffffffffffffff16815260200190815260200160002060008201518160000160006101000a81548160ff0219169083600281111561172257fe5b021790555060208201518160000160016101000a81548160ff0219169083600281111561174b57fe5b021790555060408201518160000160026101000a81548160ff021916908315150217905550606082015181600101908051906020019061178c929190612647565b509050507f22c6dfbde057f5340f316909b0b1fd76780b7fde3a55e8a155a66787e994e75d6001604051808215151515815260200191505060405180910390a160019050949350505050565b60026020528060005260406000206000915090508060000160009054906101000a900460ff16908060000160019054906101000a900463ffffffff16908060000160059054906101000a900463ffffffff16908060000160099054906101000a900460ff16905084565b600060011515600260008473ffffffffffffffffffffffffffffffffffffffff1673ffffffffffffffffffffffffffffffffffffffff16815260200190815260200160002060000160099054906101000a900460ff1615151415156118a657600080fd5b600260008373ffffffffffffffffffffffffffffffffffffffff1673ffffffffffffffffffffffffffffffffffffffff16815260200190815260200160002060000160019054906101000a900463ffffffff169050919050565b60008060011515600260008673ffffffffffffffffffffffffffffffffffffffff1673ffffffffffffffffffffffffffffffffffffffff16815260200190815260200160002060000160099054906101000a900460ff16151514151561196557600080fd5b600260008573ffffffffffffffffffffffffffffffffffffffff1673ffffffffffffffffffffffffffffffffffffffff168152602001908152602001600020600101600084815260200190815260200160002060000160009054906101000a900460ff16600260008673ffffffffffffffffffffffffffffffffffffffff1673ffffffffffffffffffffffffffffffffffffffff168152602001908152602001600020600101600085815260200190815260200160002060000160019054906101000a900473ffffffffffffffffffffffffffffffffffffffff16915091509250929050565b600060011515600360008473ffffffffffffffffffffffffffffffffffffffff1673ffffffffffffffffffffffffffffffffffffffff16815260200190815260200160002060000160029054906101000a900460ff161515141515611aaf57600080fd5b600360008373ffffffffffffffffffffffffffffffffffffffff1673ffffffffffffffffffffffffffffffffffffffff16815260200190815260200160002060000160029054906101000a900460ff169050919050565b60006060600083915060188251141515611b235760009250611f3a565b5b6018811015611f355760307f0100000000000000000000000000000000000000000000000000000000000000028282815181101515611b5f57fe5b9060200101517f010000000000000000000000000000000000000000000000000000000000000090047f0100000000000000000000000000000000000000000000000000000000000000027effffffffffffffffffffffffffffffffffffffffffffffffffffffffffffff191610158015611c77575060397f0100000000000000000000000000000000000000000000000000000000000000028282815181101515611c0757fe5b9060200101517f010000000000000000000000000000000000000000000000000000000000000090047f0100000000000000000000000000000000000000000000000000000000000000027effffffffffffffffffffffffffffffffffffffffffffffffffffffffffffff191611155b80611dc8575060417f0100000000000000000000000000000000000000000000000000000000000000028282815181101515611caf57fe5b9060200101517f010000000000000000000000000000000000000000000000000000000000000090047f0100000000000000000000000000000000000000000000000000000000000000027effffffffffffffffffffffffffffffffffffffffffffffffffffffffffffff191610158015611dc75750605a7f0100000000000000000000000000000000000000000000000000000000000000028282815181101515611d5757fe5b9060200101517f010000000000000000000000000000000000000000000000000000000000000090047f0100000000000000000000000000000000000000000000000000000000000000027effffffffffffffffffffffffffffffffffffffffffffffffffffffffffffff191611155b5b80611f19575060617f0100000000000000000000000000000000000000000000000000000000000000028282815181101515611e0057fe5b9060200101517f010000000000000000000000000000000000000000000000000000000000000090047f0100000000000000000000000000000000000000000000000000000000000000027effffffffffffffffffffffffffffffffffffffffffffffffffffffffffffff191610158015611f185750607a7f0100000000000000000000000000000000000000000000000000000000000000028282815181101515611ea857fe5b9060200101517f010000000000000000000000000000000000000000000000000000000000000090047f0100000000000000000000000000000000000000000000000000000000000000027effffffffffffffffffffffffffffffffffffffffffffffffffffffffffffff191611155b5b1515611f285760009250611f3a565b8080600101915050611b24565b600192505b5050919050565b6000611f4b6126c7565b611f53612709565b600260008673ffffffffffffffffffffffffffffffffffffffff1673ffffffffffffffffffffffffffffffffffffffff168152602001908152602001600020608060405190810160405290816000820160009054906101000a900460ff166002811115611fbc57fe5b6002811115611fc757fe5b81526020016000820160019054906101000a900463ffffffff1663ffffffff1663ffffffff1681526020016000820160059054906101000a900463ffffffff1663ffffffff1663ffffffff1681526020016000820160099054906101000a900460ff1615151515815250509150600360008773ffffffffffffffffffffffffffffffffffffffff1673ffffffffffffffffffffffffffffffffffffffff168152602001908152602001600020608060405190810160405290816000820160009054906101000a900460ff16600281111561209d57fe5b60028111156120a857fe5b81526020016000820160019054906101000a900460ff1660028111156120ca57fe5b60028111156120d557fe5b81526020016000820160029054906101000a900460ff16151515158152602001600182018054600181600116156101000203166002900480601f01602080910402602001604051908101604052809291908181526020018280546001816001161561010002031660029004801561218d5780601f106121625761010080835404028352916020019161218d565b820191906000526020600020905b81548152906001019060200180831161217057829003601f168201915b5050505050815250509050806020015160028111156121a857fe5b826000015160028111156121b857fe5b141561222c57816020015163ffffffff1684101580156121e25750816040015163ffffffff168411155b156121f05760019250612231565b60018160000151600281111561220257fe5b148061221d575060028160000151600281111561221b57fe5b145b1561222b5760019250612231565b5b600092505b50509392505050565b60006122446126c7565b61224c612709565b600260008673ffffffffffffffffffffffffffffffffffffffff1673ffffffffffffffffffffffffffffffffffffffff168152602001908152602001600020608060405190810160405290816000820160009054906101000a900460ff1660028111156122b557fe5b60028111156122c057fe5b81526020016000820160019054906101000a900463ffffffff1663ffffffff1663ffffffff1681526020016000820160059054906101000a900463ffffffff1663ffffffff1663ffffffff1681526020016000820160099054906101000a900460ff1615151515815250509150600360008773ffffffffffffffffffffffffffffffffffffffff1673ffffffffffffffffffffffffffffffffffffffff168152602001908152602001600020608060405190810160405290816000820160009054906101000a900460ff16600281111561239657fe5b60028111156123a157fe5b81526020016000820160019054906101000a900460ff1660028111156123c357fe5b60028111156123ce57fe5b81526020016000820160029054906101000a900460ff16151515158152602001600182018054600181600116156101000203166002900480601f0160208091040260200160405190810160405280929190818152602001828054600181600116156101000203166002900480156124865780601f1061245b57610100808354040283529160200191612486565b820191906000526020600020905b81548152906001019060200180831161246957829003601f168201915b50505050508152505090506000816000015160028111156124a357fe5b14806124be57506001816000015160028111156124bc57fe5b145b156124f657816020015163ffffffff1684101580156124e75750816040015163ffffffff168411155b156124f557600192506124fb565b5b600092505b50509392505050565b600061250e6126c7565b600260008573ffffffffffffffffffffffffffffffffffffffff1673ffffffffffffffffffffffffffffffffffffffff168152602001908152602001600020608060405190810160405290816000820160009054906101000a900460ff16600281111561257757fe5b600281111561258257fe5b81526020016000820160019054906101000a900463ffffffff1663ffffffff1663ffffffff1681526020016000820160059054906101000a900463ffffffff1663ffffffff1663ffffffff1681526020016000820160099054906101000a900460ff161515151581525050905060008160000151600281111561260157fe5b141561263a57806020015163ffffffff16831015801561262b5750806040015163ffffffff168311155b15612639576001915061263f565b5b600091505b509392505050565b828054600181600116156101000203166002900490600052602060002090601f016020900481019282601f1061268857805160ff19168380011785556126b6565b828001600101855582156126b6579182015b828111156126b557825182559160200191906001019061269a565b5b5090506126c3919061274a565b5090565b608060405190810160405280600060028111156126e057fe5b8152602001600063ffffffff168152602001600063ffffffff1681526020016000151581525090565b6080604051908101604052806000600281111561272257fe5b81526020016000600281111561273457fe5b8152602001600015158152602001606081525090565b61276c91905b80821115612768576000816000905550600101612750565b5090565b905600a165627a7a72305820d7f1ac8ed4223f1cd19846bbd41cc2b543d74f0e1c133ec0d0ef6eb14a305ae00029",
  "source": "pragma solidity ^0.4.23;\n\ncontract piiSZG {\n    \n    //enums za laku provjeru tipova sastavnica sveuilita i osoba\n    enum PersonType { Student, Profesor, Staff}\n    enum UniversityComponenetType { FER, FFZG, FSB}\n    \n    event ControlEvent(\n        bool controlEvent\n    );\n    \n    event eventTemp(\n        uint controlEvent\n    );\n\n    uint timeInDay = 86400;\n    uint8 numOfPersonType = 3;\n    uint8 numOfUniversityComponenetType = 3;\n  \n    //struktura Member/Osoba, sadri enums tipOsobe i \n    //tipFakulteta te bool set za provjeru postoji li \n    struct Member {\n        //string jmbag;\n        PersonType personType;\n        UniversityComponenetType universityComponenetType;\n        bool set;\n        string tid;\n        //address membersHashedAddress;\n        //public mapping(uint => bool) access;\n    }\n    \n    //struktura za zapis kontrole ulaza sadri bool \n    //jeli doputen ulaz te hash osobe koja je zatraila pristup\n    struct ControlParameter{\n        bool grantAccess;\n        address membersHashedAddress;\n        \n        //uint timeRequested;\n    }\n\n    //struktura sastavnica sveuilita sadrri enum tipa fakulteta, \n    //radno vrijeme u sekundama te bool set za provjeru postoji li i \n    //zapis kontrole ulaza za tu sastvniu \n    struct UniversityComponenet {\n        //string universityKey;\n        UniversityComponenetType universityComponenetType;\n        uint32 openingTime;\n        uint32 closingTime;\n        //address universityComponenetsHashedAddress;\n        bool set;\n        mapping(uint => ControlParameter) access;\n\n    }\n    \n    //hashirat e se u 20bajtnu adresu? i nee moi iterirati?\n    //mapa svih komponenti sveuilita i svih osoba preko hasha jmbaga/universityKeya\n    mapping(address => UniversityComponenet) public universityComponenets;\n    mapping(address => Member) public members;\n    \n    //getteri za osobu\n    function getPersonType(address _hValue) public view returns (uint){\n        require(members[_hValue].set == true);\n        return uint(members[_hValue].personType);\n    }\n    function getUniversityComponenetTypeMem(address _hValue) public view returns (uint){\n        require(members[_hValue].set == true);\n        return uint(members[_hValue].universityComponenetType);\n    }\n    function getMemberSet(address _hValue) public view returns (bool){\n        require(members[_hValue].set == true);\n        return members[_hValue].set;\n    }\n\n    //getteri za sveuilinu komponentu\n    function getUniversityComponenetTypeUC(address _hValue) public view returns (uint){\n        require(universityComponenets[_hValue].set == true);\n        return uint(universityComponenets[_hValue].universityComponenetType);\n    }    \n    function getOpeningTime(address _hValue) public view returns (uint32){\n        require(universityComponenets[_hValue].set == true);\n        return universityComponenets[_hValue].openingTime;\n    }\n    function getClosingTime(address _hValue) public view returns (uint32){\n        require(universityComponenets[_hValue].set == true);\n        return universityComponenets[_hValue].closingTime;\n    }\n    function getUniversityComponenetSet(address _hValue) public view returns (bool ){\n        require(universityComponenets[_hValue].set == true);\n        return universityComponenets[_hValue].set;\n    }\n    function getAccess(address _hValue, uint time) public view returns (bool, address){\n        require(universityComponenets[_hValue].set == true);\n        return (universityComponenets[_hValue].access[time].grantAccess, universityComponenets[_hValue].access[time].membersHashedAddress);\n        //return extractControlParameterStructToBytes(universityComponenets[_hValue].access[time]);\n    }\n    \n\n    //pomone funckije\n    //provjera jesu li dobiveni podatci u ispravnom formatu\n    //pure zato to ne vraa nita iz memorije niti trai po memoriji\n    //vraa byteove strukture ControlParameter zato to ne postoji concanate\n    function testNum4(string str) internal pure returns (bool){\n        bytes memory b = bytes(str);\n        if(b.length != 4) return false;\n        for(uint i; i<4; i++){\n            if(b[i] < 48 || b[i] > 57) return false;\n\n        }\n        return true;\n    }\n    function testNum10(string str) internal pure returns (bool){\n        bytes memory b = bytes(str);\n        if(b.length != 10) return false;\n        for(uint i; i<10; i++){\n            if(b[i] < 48 || b[i] > 57) return false;\n        }\n        return true;\n    }    \n    function testStr24(string str) internal pure returns (bool){\n        bytes memory b = bytes(str);\n        if(b.length != 24) return false;\n        for(uint i; i<24; i++){\n            if(!((b[i] >= 48 && b[i] <= 57) || (b[i] >= 65 && b[i] <= 90) || (b[i] >= 97 && b[i] <= 122))) return false;\n\n        }\n        return true;\n    }    \n\n    //kreiranje nove osobe na temelju unosa hashedValue jmbaga\n    function createMember(address _hValue, PersonType _personType, UniversityComponenetType _uComponenetType, string _tid) public returns(bool){\n        require(uint(_personType) < numOfPersonType && uint(_uComponenetType) < numOfUniversityComponenetType);\n        require(members[_hValue].set != true);\n        require(testStr24(_tid) == true);\n        members[_hValue] = Member(_personType,_uComponenetType,true,_tid);\n        //members[_hValue].personType = _personType;\n        //members[_hValue].universityComponenetType = _uComponenetType;\n        //members[_hValue].set = true;\n        emit ControlEvent(true);\n        return true;\n    }\n\n\n    //kreiranje nove komponente sveuilita na temelju unosa hashedValue universityKeya\n    function createUniversityComponenet(address _hValue, UniversityComponenetType _uComponenetType,uint32 _openingTime, uint32 _closingTime) public returns(bool){\n        require(uint(_uComponenetType) < numOfUniversityComponenetType && _openingTime <= timeInDay && _closingTime <= timeInDay);\n        //_hValue = msg.sender;\n        require(universityComponenets[_hValue].set != true);\n        //registerUC(_hValue);\n        universityComponenets[_hValue] = UniversityComponenet(_uComponenetType, _openingTime, _closingTime,true);\n        emit ControlEvent(true);\n        return true;\n    } \n    \n    //funkcija za provjeru i kreiranje transakcije te zove interne funkcije koje provjeravaju logike cijeline te na temelju toga radi transakciju\n    function callAccessTransaction(address addressHashMember, address addressHashUniversityComponenet, uint ttime, uint transactionDateTime, string tid) public returns(bool){\n        //require(testStr20(addressHashMember) && testStr20(addressHashUniversityComponenet) && ttime <= timeInDay);\n        require(ttime <= timeInDay && members[addressHashMember].set == true && universityComponenets[addressHashUniversityComponenet].set == true);\n        require(testStr24(tid) == true);\n        bool _access = false;\n        \n        //provjera jeli dostavljeni tid jednak onome zapisanom u memberu preko hasha, troi puno manje gasa\n        if(keccak256(tid) != keccak256(members[addressHashMember].tid)){\n            emit ControlEvent(false);\n            return false;\n        }\n        \n        //addressHashUniversityComponenet = msg.sender;\n        _access = checkSameUniversityOpenedOrPrivileged(addressHashMember,addressHashUniversityComponenet,ttime);\n        if(_access == true){\n            universityComponenets[addressHashUniversityComponenet].access[transactionDateTime] = ControlParameter(_access,addressHashMember);\n            emit ControlEvent(true);\n            return true;\n        }\n        _access = checkNotSameUniversityOpenedStudentProfesor(addressHashMember,addressHashUniversityComponenet,ttime);    \n        if(_access == true){\n            universityComponenets[addressHashUniversityComponenet].access[transactionDateTime] = ControlParameter(_access,addressHashMember);\n            emit ControlEvent(true);\n            return true;\n        }\n        _access = checkNotSameUniversityOpenedFER(addressHashMember,addressHashUniversityComponenet,ttime);    \n        if(_access == true){\n            universityComponenets[addressHashUniversityComponenet].access[transactionDateTime] = ControlParameter(_access,addressHashMember);\n            emit ControlEvent(true);\n            return true;\n        }\n        universityComponenets[addressHashUniversityComponenet].access[transactionDateTime] = ControlParameter(_access,addressHashMember);\n        emit ControlEvent(false);\n        return false;    \n    }\n    \n    //funkcije za reguliranje ulaza podijeljenje prema logikim komponentama\n    function checkSameUniversityOpenedOrPrivileged(address addressHashMember, address addressHashUniversityComponenet, uint ttime) internal view returns(bool){\n        UniversityComponenet memory _universityComponenet = universityComponenets[addressHashUniversityComponenet];\n        Member memory _member = members[addressHashMember]; \n        if(_universityComponenet.universityComponenetType == _member.universityComponenetType){\n            if(ttime >= _universityComponenet.openingTime && ttime <= _universityComponenet.closingTime)\n                return true;\n            else if(uint(_member.personType) == 1 || uint(_member.personType) == 2)\n                return true;\n        }\n        return false;    \n    }\n    function checkNotSameUniversityOpenedStudentProfesor(address addressHashMember, address addressHashUniversityComponenet, uint ttime) internal view returns(bool){\n        UniversityComponenet memory _universityComponenet = universityComponenets[addressHashUniversityComponenet];\n        Member memory _member = members[addressHashMember]; \n        if(uint(_member.personType) == 0 || uint(_member.personType) == 1){\n            if(ttime >= _universityComponenet.openingTime && ttime <= _universityComponenet.closingTime)\n                return true;\n        }\n        return false;\n    }\n    function checkNotSameUniversityOpenedFER(address addressHashMember, address addressHashUniversityComponenet, uint ttime) internal view returns(bool){\n        UniversityComponenet memory _universityComponenet = universityComponenets[addressHashUniversityComponenet];\n        //Member memory  _member = members[addressHashMember]; \n        if(uint(_universityComponenet.universityComponenetType) == 0){\n            if(ttime >= _universityComponenet.openingTime && ttime <= _universityComponenet.closingTime)\n                return true;\n        }\n        return false;\n    }\n}\n\n",
  "sourcePath": "/home/kresho/Downloads/diplomski/ethereumDIR/truffle/pii-szg/contracts/piiSZG.sol",
  "compiler": {
    "name": "solc",
    "version": "0.4.23+commit.124ca40d.Emscripten.clang"
  },
  "schemaVersion": "2.0.0",
  "updatedAt": "2018-05-17T13:05:39.879Z"
}